{
  "_format": "hh-sol-artifact-1",
  "contractName": "LendingPool",
  "sourceName": "contracts/lendingpool/LendingPool.sol",
  "abi": [
    {
      "inputs": [
        {
          "internalType": "address",
          "name": "_addressRegistry",
          "type": "address"
        },
        {
          "internalType": "address",
          "name": "_WETH9",
          "type": "address"
        }
      ],
      "stateMutability": "nonpayable",
      "type": "constructor"
    },
    {
      "anonymous": false,
      "inputs": [
        {
          "indexed": true,
          "internalType": "uint256",
          "name": "reserveId",
          "type": "uint256"
        },
        {
          "indexed": true,
          "internalType": "address",
          "name": "contractAddress",
          "type": "address"
        },
        {
          "indexed": true,
          "internalType": "address",
          "name": "onBehalfOf",
          "type": "address"
        },
        {
          "indexed": false,
          "internalType": "uint256",
          "name": "amount",
          "type": "uint256"
        }
      ],
      "name": "Borrow",
      "type": "event"
    },
    {
      "anonymous": false,
      "inputs": [
        {
          "indexed": true,
          "internalType": "uint256",
          "name": "reserveId",
          "type": "uint256"
        },
        {
          "indexed": false,
          "internalType": "address",
          "name": "user",
          "type": "address"
        },
        {
          "indexed": true,
          "internalType": "address",
          "name": "onBehalfOf",
          "type": "address"
        },
        {
          "indexed": false,
          "internalType": "uint256",
          "name": "reserveAmount",
          "type": "uint256"
        },
        {
          "indexed": false,
          "internalType": "uint256",
          "name": "eTokenAmount",
          "type": "uint256"
        },
        {
          "indexed": true,
          "internalType": "uint16",
          "name": "referral",
          "type": "uint16"
        }
      ],
      "name": "Deposited",
      "type": "event"
    },
    {
      "anonymous": false,
      "inputs": [
        {
          "indexed": true,
          "internalType": "uint256",
          "name": "vaultId",
          "type": "uint256"
        },
        {
          "indexed": true,
          "internalType": "address",
          "name": "vaultAddress",
          "type": "address"
        }
      ],
      "name": "DisableVaultToBorrow",
      "type": "event"
    },
    {
      "anonymous": false,
      "inputs": [
        {
          "indexed": true,
          "internalType": "uint256",
          "name": "vaultId",
          "type": "uint256"
        },
        {
          "indexed": true,
          "internalType": "address",
          "name": "vaultAddress",
          "type": "address"
        }
      ],
      "name": "EnableVaultToBorrow",
      "type": "event"
    },
    {
      "anonymous": false,
      "inputs": [
        {
          "indexed": true,
          "internalType": "address",
          "name": "reserve",
          "type": "address"
        },
        {
          "indexed": true,
          "internalType": "address",
          "name": "eTokenAddress",
          "type": "address"
        },
        {
          "indexed": false,
          "internalType": "address",
          "name": "stakingAddress",
          "type": "address"
        },
        {
          "indexed": false,
          "internalType": "uint256",
          "name": "id",
          "type": "uint256"
        }
      ],
      "name": "InitReserve",
      "type": "event"
    },
    {
      "anonymous": false,
      "inputs": [
        {
          "indexed": true,
          "internalType": "address",
          "name": "previousOwner",
          "type": "address"
        },
        {
          "indexed": true,
          "internalType": "address",
          "name": "newOwner",
          "type": "address"
        }
      ],
      "name": "OwnershipTransferred",
      "type": "event"
    },
    {
      "anonymous": false,
      "inputs": [],
      "name": "Paused",
      "type": "event"
    },
    {
      "anonymous": false,
      "inputs": [
        {
          "indexed": true,
          "internalType": "uint256",
          "name": "reserveId",
          "type": "uint256"
        },
        {
          "indexed": true,
          "internalType": "address",
          "name": "user",
          "type": "address"
        },
        {
          "indexed": true,
          "internalType": "address",
          "name": "to",
          "type": "address"
        },
        {
          "indexed": false,
          "internalType": "uint256",
          "name": "eTokenAmount",
          "type": "uint256"
        },
        {
          "indexed": false,
          "internalType": "uint256",
          "name": "underlyingTokenAmount",
          "type": "uint256"
        }
      ],
      "name": "Redeemed",
      "type": "event"
    },
    {
      "anonymous": false,
      "inputs": [
        {
          "indexed": true,
          "internalType": "uint256",
          "name": "reserveId",
          "type": "uint256"
        },
        {
          "indexed": true,
          "internalType": "address",
          "name": "onBehalfOf",
          "type": "address"
        },
        {
          "indexed": true,
          "internalType": "address",
          "name": "contractAddress",
          "type": "address"
        },
        {
          "indexed": false,
          "internalType": "uint256",
          "name": "amount",
          "type": "uint256"
        }
      ],
      "name": "Repay",
      "type": "event"
    },
    {
      "anonymous": false,
      "inputs": [
        {
          "indexed": true,
          "internalType": "uint256",
          "name": "vaultId",
          "type": "uint256"
        },
        {
          "indexed": true,
          "internalType": "address",
          "name": "vaultAddress",
          "type": "address"
        },
        {
          "indexed": true,
          "internalType": "uint256",
          "name": "reserveId",
          "type": "uint256"
        },
        {
          "indexed": false,
          "internalType": "uint256",
          "name": "credit",
          "type": "uint256"
        }
      ],
      "name": "SetCreditsOfVault",
      "type": "event"
    },
    {
      "anonymous": false,
      "inputs": [],
      "name": "UnPaused",
      "type": "event"
    },
    {
      "inputs": [],
      "name": "WETH9",
      "outputs": [
        {
          "internalType": "address",
          "name": "",
          "type": "address"
        }
      ],
      "stateMutability": "view",
      "type": "function"
    },
    {
      "inputs": [
        {
          "internalType": "uint256",
          "name": "reserveId",
          "type": "uint256"
        }
      ],
      "name": "activateReserve",
      "outputs": [],
      "stateMutability": "nonpayable",
      "type": "function"
    },
    {
      "inputs": [],
      "name": "addressRegistry",
      "outputs": [
        {
          "internalType": "address",
          "name": "",
          "type": "address"
        }
      ],
      "stateMutability": "view",
      "type": "function"
    },
    {
      "inputs": [
        {
          "internalType": "address",
          "name": "onBehalfOf",
          "type": "address"
        },
        {
          "internalType": "uint256",
          "name": "debtId",
          "type": "uint256"
        },
        {
          "internalType": "uint256",
          "name": "amount",
          "type": "uint256"
        }
      ],
      "name": "borrow",
      "outputs": [],
      "stateMutability": "nonpayable",
      "type": "function"
    },
    {
      "inputs": [
        {
          "internalType": "uint256",
          "name": "reserveId",
          "type": "uint256"
        }
      ],
      "name": "borrowingRateOfReserve",
      "outputs": [
        {
          "internalType": "uint256",
          "name": "",
          "type": "uint256"
        }
      ],
      "stateMutability": "view",
      "type": "function"
    },
    {
      "inputs": [
        {
          "internalType": "address",
          "name": "",
          "type": "address"
        }
      ],
      "name": "borrowingWhiteList",
      "outputs": [
        {
          "internalType": "bool",
          "name": "",
          "type": "bool"
        }
      ],
      "stateMutability": "view",
      "type": "function"
    },
    {
      "inputs": [
        {
          "internalType": "uint256",
          "name": "",
          "type": "uint256"
        },
        {
          "internalType": "address",
          "name": "",
          "type": "address"
        }
      ],
      "name": "credits",
      "outputs": [
        {
          "internalType": "uint256",
          "name": "",
          "type": "uint256"
        }
      ],
      "stateMutability": "view",
      "type": "function"
    },
    {
      "inputs": [
        {
          "internalType": "uint256",
          "name": "reserveId",
          "type": "uint256"
        }
      ],
      "name": "deActivateReserve",
      "outputs": [],
      "stateMutability": "nonpayable",
      "type": "function"
    },
    {
      "inputs": [
        {
          "internalType": "uint256",
          "name": "",
          "type": "uint256"
        }
      ],
      "name": "debtPositions",
      "outputs": [
        {
          "internalType": "uint256",
          "name": "reserveId",
          "type": "uint256"
        },
        {
          "internalType": "address",
          "name": "owner",
          "type": "address"
        },
        {
          "internalType": "uint256",
          "name": "borrowed",
          "type": "uint256"
        },
        {
          "internalType": "uint256",
          "name": "borrowedIndex",
          "type": "uint256"
        }
      ],
      "stateMutability": "view",
      "type": "function"
    },
    {
      "inputs": [
        {
          "internalType": "uint256",
          "name": "reserveId",
          "type": "uint256"
        },
        {
          "internalType": "uint256",
          "name": "amount",
          "type": "uint256"
        },
        {
          "internalType": "address",
          "name": "onBehalfOf",
          "type": "address"
        },
        {
          "internalType": "uint16",
          "name": "referralCode",
          "type": "uint16"
        }
      ],
      "name": "deposit",
      "outputs": [
        {
          "internalType": "uint256",
          "name": "eTokenAmount",
          "type": "uint256"
        }
      ],
      "stateMutability": "payable",
      "type": "function"
    },
    {
      "inputs": [
        {
          "internalType": "uint256",
          "name": "reserveId",
          "type": "uint256"
        },
        {
          "internalType": "uint256",
          "name": "amount",
          "type": "uint256"
        },
        {
          "internalType": "address",
          "name": "onBehalfOf",
          "type": "address"
        },
        {
          "internalType": "uint16",
          "name": "referralCode",
          "type": "uint16"
        }
      ],
      "name": "depositAndStake",
      "outputs": [
        {
          "internalType": "uint256",
          "name": "eTokenAmount",
          "type": "uint256"
        }
      ],
      "stateMutability": "payable",
      "type": "function"
    },
    {
      "inputs": [
        {
          "internalType": "uint256",
          "name": "reserveId",
          "type": "uint256"
        }
      ],
      "name": "disableBorrowing",
      "outputs": [],
      "stateMutability": "nonpayable",
      "type": "function"
    },
    {
      "inputs": [
        {
          "internalType": "uint256",
          "name": "vaultId",
          "type": "uint256"
        }
      ],
      "name": "disableVaultToBorrow",
      "outputs": [],
      "stateMutability": "nonpayable",
      "type": "function"
    },
    {
      "inputs": [],
      "name": "emergencyPauseAll",
      "outputs": [],
      "stateMutability": "nonpayable",
      "type": "function"
    },
    {
      "inputs": [
        {
          "internalType": "uint256",
          "name": "reserveId",
          "type": "uint256"
        }
      ],
      "name": "enableBorrowing",
      "outputs": [],
      "stateMutability": "nonpayable",
      "type": "function"
    },
    {
      "inputs": [
        {
          "internalType": "uint256",
          "name": "vaultId",
          "type": "uint256"
        }
      ],
      "name": "enableVaultToBorrow",
      "outputs": [],
      "stateMutability": "nonpayable",
      "type": "function"
    },
    {
      "inputs": [
        {
          "internalType": "uint256",
          "name": "reserveId",
          "type": "uint256"
        }
      ],
      "name": "exchangeRateOfReserve",
      "outputs": [
        {
          "internalType": "uint256",
          "name": "",
          "type": "uint256"
        }
      ],
      "stateMutability": "view",
      "type": "function"
    },
    {
      "inputs": [
        {
          "internalType": "uint256",
          "name": "reserveId",
          "type": "uint256"
        }
      ],
      "name": "freezeReserve",
      "outputs": [],
      "stateMutability": "nonpayable",
      "type": "function"
    },
    {
      "inputs": [
        {
          "internalType": "uint256",
          "name": "debtId",
          "type": "uint256"
        }
      ],
      "name": "getCurrentDebt",
      "outputs": [
        {
          "internalType": "uint256",
          "name": "currentDebt",
          "type": "uint256"
        }
      ],
      "stateMutability": "view",
      "type": "function"
    },
    {
      "inputs": [
        {
          "internalType": "uint256",
          "name": "reserveId",
          "type": "uint256"
        }
      ],
      "name": "getETokenAddress",
      "outputs": [
        {
          "internalType": "address",
          "name": "",
          "type": "address"
        }
      ],
      "stateMutability": "view",
      "type": "function"
    },
    {
      "inputs": [
        {
          "internalType": "uint256[]",
          "name": "reserveIdArr",
          "type": "uint256[]"
        },
        {
          "internalType": "address",
          "name": "user",
          "type": "address"
        }
      ],
      "name": "getPositionStatus",
      "outputs": [
        {
          "components": [
            {
              "internalType": "uint256",
              "name": "reserveId",
              "type": "uint256"
            },
            {
              "internalType": "address",
              "name": "user",
              "type": "address"
            },
            {
              "internalType": "uint256",
              "name": "eTokenStaked",
              "type": "uint256"
            },
            {
              "internalType": "uint256",
              "name": "eTokenUnStaked",
              "type": "uint256"
            },
            {
              "internalType": "uint256",
              "name": "liquidity",
              "type": "uint256"
            }
          ],
          "internalType": "struct ILendingPool.PositionStatus[]",
          "name": "statusArr",
          "type": "tuple[]"
        }
      ],
      "stateMutability": "view",
      "type": "function"
    },
    {
      "inputs": [
        {
          "internalType": "uint256",
          "name": "debtId",
          "type": "uint256"
        }
      ],
      "name": "getReserveIdOfDebt",
      "outputs": [
        {
          "internalType": "uint256",
          "name": "",
          "type": "uint256"
        }
      ],
      "stateMutability": "view",
      "type": "function"
    },
    {
      "inputs": [
        {
          "internalType": "uint256[]",
          "name": "reserveIdArr",
          "type": "uint256[]"
        }
      ],
      "name": "getReserveStatus",
      "outputs": [
        {
          "components": [
            {
              "internalType": "uint256",
              "name": "reserveId",
              "type": "uint256"
            },
            {
              "internalType": "address",
              "name": "underlyingTokenAddress",
              "type": "address"
            },
            {
              "internalType": "address",
              "name": "eTokenAddress",
              "type": "address"
            },
            {
              "internalType": "address",
              "name": "stakingAddress",
              "type": "address"
            },
            {
              "internalType": "uint256",
              "name": "totalLiquidity",
              "type": "uint256"
            },
            {
              "internalType": "uint256",
              "name": "totalBorrows",
              "type": "uint256"
            },
            {
              "internalType": "uint256",
              "name": "exchangeRate",
              "type": "uint256"
            },
            {
              "internalType": "uint256",
              "name": "borrowingRate",
              "type": "uint256"
            }
          ],
          "internalType": "struct ILendingPool.ReserveStatus[]",
          "name": "statusArr",
          "type": "tuple[]"
        }
      ],
      "stateMutability": "view",
      "type": "function"
    },
    {
      "inputs": [
        {
          "internalType": "uint256",
          "name": "reserveId",
          "type": "uint256"
        }
      ],
      "name": "getStakingAddress",
      "outputs": [
        {
          "internalType": "address",
          "name": "",
          "type": "address"
        }
      ],
      "stateMutability": "view",
      "type": "function"
    },
    {
      "inputs": [
        {
          "internalType": "uint256",
          "name": "reserveId",
          "type": "uint256"
        }
      ],
      "name": "getUnderlyingTokenAddress",
      "outputs": [
        {
          "internalType": "address",
          "name": "",
          "type": "address"
        }
      ],
      "stateMutability": "view",
      "type": "function"
    },
    {
      "inputs": [
        {
          "internalType": "address",
          "name": "underlyingTokenAddress",
          "type": "address"
        }
      ],
      "name": "initReserve",
      "outputs": [],
      "stateMutability": "nonpayable",
      "type": "function"
    },
    {
      "inputs": [
        {
          "internalType": "uint256",
          "name": "reserveId",
          "type": "uint256"
        }
      ],
      "name": "newBorrowPosition",
      "outputs": [
        {
          "internalType": "uint256",
          "name": "debtId",
          "type": "uint256"
        }
      ],
      "stateMutability": "nonpayable",
      "type": "function"
    },
    {
      "inputs": [],
      "name": "nextDebtPositionId",
      "outputs": [
        {
          "internalType": "uint256",
          "name": "",
          "type": "uint256"
        }
      ],
      "stateMutability": "view",
      "type": "function"
    },
    {
      "inputs": [],
      "name": "nextReserveId",
      "outputs": [
        {
          "internalType": "uint256",
          "name": "",
          "type": "uint256"
        }
      ],
      "stateMutability": "view",
      "type": "function"
    },
    {
      "inputs": [],
      "name": "owner",
      "outputs": [
        {
          "internalType": "address",
          "name": "",
          "type": "address"
        }
      ],
      "stateMutability": "view",
      "type": "function"
    },
    {
      "inputs": [],
      "name": "paused",
      "outputs": [
        {
          "internalType": "bool",
          "name": "",
          "type": "bool"
        }
      ],
      "stateMutability": "view",
      "type": "function"
    },
    {
      "inputs": [
        {
          "internalType": "uint256",
          "name": "reserveId",
          "type": "uint256"
        },
        {
          "internalType": "uint256",
          "name": "eTokenAmount",
          "type": "uint256"
        },
        {
          "internalType": "address",
          "name": "to",
          "type": "address"
        },
        {
          "internalType": "bool",
          "name": "receiveNativeETH",
          "type": "bool"
        }
      ],
      "name": "redeem",
      "outputs": [
        {
          "internalType": "uint256",
          "name": "",
          "type": "uint256"
        }
      ],
      "stateMutability": "payable",
      "type": "function"
    },
    {
      "inputs": [],
      "name": "renounceOwnership",
      "outputs": [],
      "stateMutability": "nonpayable",
      "type": "function"
    },
    {
      "inputs": [
        {
          "internalType": "address",
          "name": "onBehalfOf",
          "type": "address"
        },
        {
          "internalType": "uint256",
          "name": "debtId",
          "type": "uint256"
        },
        {
          "internalType": "uint256",
          "name": "amount",
          "type": "uint256"
        }
      ],
      "name": "repay",
      "outputs": [
        {
          "internalType": "uint256",
          "name": "",
          "type": "uint256"
        }
      ],
      "stateMutability": "nonpayable",
      "type": "function"
    },
    {
      "inputs": [
        {
          "internalType": "uint256",
          "name": "",
          "type": "uint256"
        }
      ],
      "name": "reserves",
      "outputs": [
        {
          "internalType": "uint256",
          "name": "borrowingIndex",
          "type": "uint256"
        },
        {
          "internalType": "uint256",
          "name": "currentBorrowingRate",
          "type": "uint256"
        },
        {
          "internalType": "uint256",
          "name": "totalBorrows",
          "type": "uint256"
        },
        {
          "internalType": "address",
          "name": "underlyingTokenAddress",
          "type": "address"
        },
        {
          "internalType": "address",
          "name": "eTokenAddress",
          "type": "address"
        },
        {
          "internalType": "address",
          "name": "stakingAddress",
          "type": "address"
        },
        {
          "internalType": "uint256",
          "name": "reserveCapacity",
          "type": "uint256"
        },
        {
          "internalType": "uint256",
          "name": "maxDepositAmountPerTx",
          "type": "uint256"
        },
        {
          "components": [
            {
              "internalType": "uint128",
              "name": "utilizationA",
              "type": "uint128"
            },
            {
              "internalType": "uint128",
              "name": "borrowingRateA",
              "type": "uint128"
            },
            {
              "internalType": "uint128",
              "name": "utilizationB",
              "type": "uint128"
            },
            {
              "internalType": "uint128",
              "name": "borrowingRateB",
              "type": "uint128"
            },
            {
              "internalType": "uint128",
              "name": "maxBorrowingRate",
              "type": "uint128"
            }
          ],
          "internalType": "struct DataTypes.InterestRateConfig",
          "name": "borrowingRateConfig",
          "type": "tuple"
        },
        {
          "internalType": "uint256",
          "name": "id",
          "type": "uint256"
        },
        {
          "internalType": "uint128",
          "name": "lastUpdateTimestamp",
          "type": "uint128"
        },
        {
          "internalType": "uint16",
          "name": "reserveFeeRate",
          "type": "uint16"
        },
        {
          "components": [
            {
              "internalType": "bool",
              "name": "isActive",
              "type": "bool"
            },
            {
              "internalType": "bool",
              "name": "frozen",
              "type": "bool"
            },
            {
              "internalType": "bool",
              "name": "borrowingEnabled",
              "type": "bool"
            }
          ],
          "internalType": "struct DataTypes.Flags",
          "name": "flags",
          "type": "tuple"
        }
      ],
      "stateMutability": "view",
      "type": "function"
    },
    {
      "inputs": [
        {
          "internalType": "uint256",
          "name": "reserveId",
          "type": "uint256"
        },
        {
          "internalType": "uint16",
          "name": "utilizationA",
          "type": "uint16"
        },
        {
          "internalType": "uint16",
          "name": "borrowingRateA",
          "type": "uint16"
        },
        {
          "internalType": "uint16",
          "name": "utilizationB",
          "type": "uint16"
        },
        {
          "internalType": "uint16",
          "name": "borrowingRateB",
          "type": "uint16"
        },
        {
          "internalType": "uint16",
          "name": "maxBorrowingRate",
          "type": "uint16"
        }
      ],
      "name": "setBorrowingRateConfig",
      "outputs": [],
      "stateMutability": "nonpayable",
      "type": "function"
    },
    {
      "inputs": [
        {
          "internalType": "uint256",
          "name": "vaultId",
          "type": "uint256"
        },
        {
          "internalType": "uint256",
          "name": "reserveId",
          "type": "uint256"
        },
        {
          "internalType": "uint256",
          "name": "credit",
          "type": "uint256"
        }
      ],
      "name": "setCreditsOfVault",
      "outputs": [],
      "stateMutability": "nonpayable",
      "type": "function"
    },
    {
      "inputs": [
        {
          "internalType": "uint256",
          "name": "reserveId",
          "type": "uint256"
        },
        {
          "internalType": "uint16",
          "name": "_rate",
          "type": "uint16"
        }
      ],
      "name": "setReserveFeeRate",
      "outputs": [],
      "stateMutability": "nonpayable",
      "type": "function"
    },
    {
      "inputs": [
        {
          "internalType": "uint256",
          "name": "reserveId",
          "type": "uint256"
        }
      ],
      "name": "totalBorrowsOfReserve",
      "outputs": [
        {
          "internalType": "uint256",
          "name": "totalBorrows",
          "type": "uint256"
        }
      ],
      "stateMutability": "view",
      "type": "function"
    },
    {
      "inputs": [
        {
          "internalType": "uint256",
          "name": "reserveId",
          "type": "uint256"
        }
      ],
      "name": "totalLiquidityOfReserve",
      "outputs": [
        {
          "internalType": "uint256",
          "name": "totalLiquidity",
          "type": "uint256"
        }
      ],
      "stateMutability": "view",
      "type": "function"
    },
    {
      "inputs": [
        {
          "internalType": "address",
          "name": "newOwner",
          "type": "address"
        }
      ],
      "name": "transferOwnership",
      "outputs": [],
      "stateMutability": "nonpayable",
      "type": "function"
    },
    {
      "inputs": [
        {
          "internalType": "uint256",
          "name": "reserveId",
          "type": "uint256"
        }
      ],
      "name": "unFreezeReserve",
      "outputs": [],
      "stateMutability": "nonpayable",
      "type": "function"
    },
    {
      "inputs": [],
      "name": "unPauseAll",
      "outputs": [],
      "stateMutability": "nonpayable",
      "type": "function"
    },
    {
      "inputs": [
        {
          "internalType": "uint256",
          "name": "reserveId",
          "type": "uint256"
        },
        {
          "internalType": "uint256",
          "name": "eTokenAmount",
          "type": "uint256"
        },
        {
          "internalType": "address",
          "name": "to",
          "type": "address"
        },
        {
          "internalType": "bool",
          "name": "receiveNativeETH",
          "type": "bool"
        }
      ],
      "name": "unStakeAndWithdraw",
      "outputs": [
        {
          "internalType": "uint256",
          "name": "",
          "type": "uint256"
        }
      ],
      "stateMutability": "payable",
      "type": "function"
    },
    {
      "inputs": [
        {
          "internalType": "uint256",
          "name": "reserveId",
          "type": "uint256"
        }
      ],
      "name": "utilizationRateOfReserve",
      "outputs": [
        {
          "internalType": "uint256",
          "name": "",
          "type": "uint256"
        }
      ],
      "stateMutability": "view",
      "type": "function"
    },
    {
      "stateMutability": "payable",
      "type": "receive"
    }
  ],
  "bytecode": "0x60c06040523480156200001157600080fd5b5060405162004d3438038062004d34833981016040819052620000349162000166565b806200004033620000f9565b6001600160a01b0390811660805260018055604080518082019091526002815261313360f01b6020820152908316620000975760405162461bcd60e51b81526004016200008e91906200019e565b60405180910390fd5b50604080518082019091526002815261313360f01b60208201526001600160a01b038216620000db5760405162461bcd60e51b81526004016200008e91906200019e565b50506001600160a01b031660a05260016003819055600755620001ee565b600080546001600160a01b038381166001600160a01b0319831681178455604051919092169283917f8be0079c531659141344cd1fd0a4f28419497f9722a3daafe3b4186f6b6457e09190a35050565b80516001600160a01b03811681146200016157600080fd5b919050565b600080604083850312156200017a57600080fd5b620001858362000149565b9150620001956020840162000149565b90509250929050565b600060208083528351808285015260005b81811015620001cd57858101830151858201604001528201620001af565b506000604082860101526040601f19601f8301168501019250505092915050565b60805160a051614ae16200025360003960008181610b2e01528181612fa2015261313001526000818161029e0152818161049701528181612e4201528181613868015281816138ae0152818161394301528181613a360152613b050152614ae16000f3fe6080604052600436106102755760003560e01c80636387310d1161014f578063be774df8116100c1578063e1b1acb71161007a578063e1b1acb714610a68578063ef28eee114610adc578063f2fde38b14610afc578063f3ad65f414610b1c578063f6955a6114610b50578063f7ca8d7514610b7057600080fd5b8063be774df81461098f578063c1bce0b7146109bc578063d2154138146109dc578063d9b84ab1146109ef578063dd57691114610a0f578063df8afadc14610a4857600080fd5b80638334278d116101135780638334278d146106935780638cd2e0c7146108d75780638da5cb5b146108f7578063a80bf1e014610915578063b069e06514610942578063ba4b7c941461096f57600080fd5b80636387310d146105e65780636cb9f7011461061e578063715018a61461063e5780637551c86c146106535780637deacfba1461067357600080fd5b806346dbf589116101e857806354018896116101ac5780635401889614610507578063594d81e5146105405780635c6b6782146105535780635c975abb1461058c5780635d798bfe146105a657806361c7f38d146105c657600080fd5b806346dbf5891461044f57806347e561b8146104655780634aa4a4fc14610485578063507668cd146104d157806350a8376e146104e757600080fd5b806313c8e60d1161023a57806313c8e60d146103a95780631de8a7c2146103c95780631f679626146103dc57806320d8890b146103ef5780632173ab641461040f578063431f53a91461042f57600080fd5b8062d3e422146102ec5780630775ef0f1461030c57806307c97ffb1461032157806308e250a81461033657806311d584e41461037b57600080fd5b366102e757604080518082019091526002815261313760f01b6020820152336001600160a01b037f000000000000000000000000000000000000000000000000000000000000000016146102e55760405162461bcd60e51b81526004016102dc91906142c7565b60405180910390fd5b005b600080fd5b3480156102f857600080fd5b506102e56103073660046142da565b610b90565b34801561031857600080fd5b506102e5610bfb565b34801561032d57600080fd5b506102e5610c3b565b34801561034257600080fd5b50610366610351366004614308565b60056020526000908152604090205460ff1681565b60405190151581526020015b60405180910390f35b34801561038757600080fd5b5061039b6103963660046142da565b610c78565b604051908152602001610372565b3480156103b557600080fd5b5061039b6103c43660046142da565b610c97565b61039b6103d7366004614337565b610ced565b61039b6103ea36600461438d565b610d55565b3480156103fb57600080fd5b506102e561040a3660046142da565b610eb1565b34801561041b57600080fd5b5061039b61042a3660046142da565b610f56565b34801561043b57600080fd5b506102e561044a3660046142da565b6110a4565b34801561045b57600080fd5b5061039b60035481565b34801561047157600080fd5b506102e56104803660046142da565b611107565b34801561049157600080fd5b506104b97f000000000000000000000000000000000000000000000000000000000000000081565b6040516001600160a01b039091168152602001610372565b3480156104dd57600080fd5b5061039b60075481565b3480156104f357600080fd5b506102e56105023660046143d7565b611168565b34801561051357600080fd5b506104b96105223660046142da565b6000908152600260205260409020600401546001600160a01b031690565b61039b61054e366004614337565b6111d4565b34801561055f57600080fd5b506104b961056e3660046142da565b6000908152600260205260409020600501546001600160a01b031690565b34801561059857600080fd5b506008546103669060ff1681565b3480156105b257600080fd5b506102e56105c13660046142da565b611361565b3480156105d257600080fd5b5061039b6105e13660046142da565b6113c1565b3480156105f257600080fd5b5061039b610601366004614444565b600460209081526000928352604080842090915290825290205481565b34801561062a57600080fd5b5061039b6106393660046142da565b6113df565b34801561064a57600080fd5b506102e56113f6565b34801561065f57600080fd5b506102e561066e366004614308565b61140a565b34801561067f57600080fd5b506102e561068e366004614474565b6116f7565b34801561069f57600080fd5b506108be6106ae3660046142da565b60026020528060005260406000206000915090508060000154908060010154908060020154908060030160009054906101000a90046001600160a01b0316908060040160009054906101000a90046001600160a01b0316908060050160009054906101000a90046001600160a01b031690806006015490806007015490806008016040518060a00160405290816000820160009054906101000a90046001600160801b03166001600160801b03166001600160801b031681526020016000820160109054906101000a90046001600160801b03166001600160801b03166001600160801b031681526020016001820160009054906101000a90046001600160801b03166001600160801b03166001600160801b031681526020016001820160109054906101000a90046001600160801b03166001600160801b03166001600160801b031681526020016002820160009054906101000a90046001600160801b03166001600160801b03166001600160801b0316815250509080600b01549080600c0160009054906101000a90046001600160801b03169080600c0160109054906101000a900461ffff169080600d016040518060600160405290816000820160009054906101000a900460ff161515151581526020016000820160019054906101000a900460ff161515151581526020016000820160029054906101000a900460ff16151515158152505090508d565b6040516103729d9c9b9a999897969594939291906144a0565b3480156108e357600080fd5b5061039b6108f2366004614589565b6117ad565b34801561090357600080fd5b506000546001600160a01b03166104b9565b34801561092157600080fd5b5061039b6109303660046142da565b60009081526006602052604090205490565b34801561094e57600080fd5b5061096261095d36600461460a565b611a77565b6040516103729190614661565b34801561097b57600080fd5b506102e561098a3660046146d8565b611e34565b34801561099b57600080fd5b506109af6109aa366004614704565b611ef5565b6040516103729190614746565b3480156109c857600080fd5b506102e56109d7366004614589565b6122f1565b61039b6109ea36600461438d565b612662565b3480156109fb57600080fd5b506102e5610a0a3660046142da565b612801565b348015610a1b57600080fd5b506104b9610a2a3660046142da565b6000908152600260205260409020600301546001600160a01b031690565b348015610a5457600080fd5b5061039b610a633660046142da565b6128a3565b348015610a7457600080fd5b50610ab4610a833660046142da565b600660205260009081526040902080546001820154600283015460039093015491926001600160a01b039091169184565b604080519485526001600160a01b039093166020850152918301526060820152608001610372565b348015610ae857600080fd5b5061039b610af73660046142da565b612928565b348015610b0857600080fd5b506102e5610b17366004614308565b61293f565b348015610b2857600080fd5b506104b97f000000000000000000000000000000000000000000000000000000000000000081565b348015610b5c57600080fd5b506102e5610b6b3660046142da565b6129b8565b348015610b7c57600080fd5b506102e5610b8b3660046142da565b612a18565b610b98612a79565b600854604080518082019091526002815261383360f01b60208201529060ff1615610bd65760405162461bcd60e51b81526004016102dc91906142c7565b506000908152600260205260409020600d01805461ff001916610100179055565b5050565b610c03612a79565b6008805460ff191660011790556040517f9e87fac88ff661f02d44f95383c817fece4bce600a3dab7a54406878b965e75290600090a1565b610c43612a79565b6008805460ff191690556040517f472cf038e2a5f33dbaa68760dbf94ab4e159535e6580c0ac63f8202c7c6c0bb290600090a1565b6000818152600260205260408120610c8f81612ad3565b509392505050565b6000818152600660209081526040808320805484526002909252822082610cbd82612afb565b9050610ce48360030154610cde838660020154612b5690919063ffffffff16565b90612b62565b95945050505050565b600854604080518082019091526002815261383360f01b602082015260009160ff1615610d2d5760405162461bcd60e51b81526004016102dc91906142c7565b50610d36612b6e565b610d4285858585612bc7565b9050610d4d60018055565b949350505050565b600854604080518082019091526002815261383360f01b602082015260009160ff1615610d955760405162461bcd60e51b81526004016102dc91906142c7565b50610d9e612b6e565b6000858152600260205260409020600501546001600160a01b031680610dd65760405162461bcd60e51b81526004016102dc906147d6565b6001600160a01b038116631b503fa586336040516001600160e01b031960e085901b16815260048101929092526001600160a01b03166024820152306044820152606401600060405180830381600087803b158015610e3457600080fd5b505af1158015610e48573d6000803e3d6000fd5b505050506000610e5a87878787612d4d565b60408051888152602081018390529192506001600160a01b0387169133918a917f9d01c305bd637e3fd85d7abaf4588efdd37000da477a303eaaa4fbc4510213d9910160405180910390a4915050610d4d60018055565b610eb9612a79565b600854604080518082019091526002815261383360f01b60208201529060ff1615610ef75760405162461bcd60e51b81526004016102dc91906142c7565b506000610f0382612f7f565b6001600160a01b038116600081815260056020526040808220805460ff1916600117905551929350909184917ffe277e53c522ef42faa4acffda2b15adc567ae3db5cfaa1580ad4bae98a8571091a35050565b600854604080518082019091526002815261383360f01b602082015260009160ff1615610f965760405162461bcd60e51b81526004016102dc91906142c7565b50610f9f612b6e565b6000610faa836130c9565b600d810154909150610100900460ff1615604051806040016040528060018152602001601960f91b81525090610ff35760405162461bcd60e51b81526004016102dc91906142c7565b50600d81015462010000900460ff16604051806040016040528060018152602001601b60f91b8152509061103a5760405162461bcd60e51b81526004016102dc91906142c7565b50600754915061104b82600161480f565b60075560008281526006602052604090206001810180546001600160a01b0319163317905561108261107b613117565b83906131ea565b61108b82613208565b838155905460039091015561109f60018055565b919050565b6110ac612a79565b600854604080518082019091526002815261383360f01b60208201529060ff16156110ea5760405162461bcd60e51b81526004016102dc91906142c7565b506000908152600260205260409020600d01805461ff0019169055565b61110f612a79565b600854604080518082019091526002815261383360f01b60208201529060ff161561114d5760405162461bcd60e51b81526004016102dc91906142c7565b50600081815260026020526040812090610bf7908290613225565b611170612a79565b600854604080518082019091526002815261383360f01b60208201529060ff16156111ae5760405162461bcd60e51b81526004016102dc91906142c7565b5060008681526002602052604090206111cb818787878787613244565b50505050505050565b600854604080518082019091526002815261383360f01b602082015260009160ff16156112145760405162461bcd60e51b81526004016102dc91906142c7565b5061121d612b6e565b61122985853085612bc7565b6000868152600260205260409020600501549091506001600160a01b0316806112645760405162461bcd60e51b81526004016102dc906147d6565b6000868152600260205260409020600401546001600160a01b031660405163095ea7b360e01b81526001600160a01b03838116600483015260248201859052919091169063095ea7b3906044016020604051808303816000875af11580156112d0573d6000803e3d6000fd5b505050506040513d601f19601f820116820180604052508101906112f49190614822565b50604051637acb775760e01b8152600481018390526001600160a01b038581166024830152821690637acb775790604401600060405180830381600087803b15801561133f57600080fd5b505af1158015611353573d6000803e3d6000fd5b5050505050610d4d60018055565b611369612a79565b600854604080518082019091526002815261383360f01b60208201529060ff16156113a75760405162461bcd60e51b81526004016102dc91906142c7565b506000818152600260205260409020610bf7816001613225565b60008181526002602052604081206113d88161337d565b9392505050565b60008181526002602052604081206113d88161338b565b6113fe612a79565b61140860006133c4565b565b611412612a79565b600854604080518082019091526002815261383360f01b60208201529060ff16156114505760405162461bcd60e51b81526004016102dc91906142c7565b5060035461145f816001613414565b6003819055506000826001600160a01b03166306fdde036040518163ffffffff1660e01b8152600401600060405180830381865afa1580156114a5573d6000803e3d6000fd5b505050506040513d6000823e601f3d908101601f191682016040526114cd9190810190614855565b6040516020016114dd9190614902565b60405160208183030381529060405290506000836001600160a01b03166395d89b416040518163ffffffff1660e01b8152600401600060405180830381865afa15801561152e573d6000803e3d6000fd5b505050506040513d6000823e601f3d908101601f191682016040526115569190810190614855565b6040516020016115669190614943565b60405160208183030381529060405290506000846001600160a01b031663313ce5676040518163ffffffff1660e01b8152600401602060405180830381865afa1580156115b7573d6000803e3d6000fd5b505050506040513d601f19601f820116820180604052508101906115db919061496c565b9050600073__$5ad69d1d0893b90321b9dea32fba5e4dc0$__631a2d2ec98585858a8a6040518663ffffffff1660e01b815260040161161e95949392919061498f565b602060405180830381865af415801561163b573d6000803e3d6000fd5b505050506040513d601f19601f8201168201806040525081019061165f91906149de565b600086815260026020526040902090915061167b816001613420565b611686816001613225565b611696818884600019808b613437565b61169f866134db565b6005810154604080516001600160a01b03928316815260208101899052848316928a16917f857d20297bde4478f678d3aafbfdf7fbfc90a4200b62eb053a32b2c50335676f910160405180910390a350505050505050565b6116ff612a79565b600854604080518082019091526002815261383360f01b60208201529060ff161561173d5760405162461bcd60e51b81526004016102dc91906142c7565b50600061174984612f7f565b60008481526004602090815260408083206001600160a01b0385168085529083529281902086905551858152929350859287917f305a3970f39fcb6fbf030acd1e8769621d41445041f23a45a1e7e92606bf8726910160405180910390a450505050565b600854604080518082019091526002815261383360f01b602082015260009160ff16156117ed5760405162461bcd60e51b81526004016102dc91906142c7565b506117f6612b6e565b3360009081526005602090815260409182902054825180840190935260018352600760fb1b9183019190915260ff166118425760405162461bcd60e51b81526004016102dc91906142c7565b50600083815260066020526040902060018101546001600160a01b0316336001600160a01b031614604051806040016040528060018152602001603760f81b815250906118a25760405162461bcd60e51b81526004016102dc91906142c7565b5060006118b282600001546130c9565b90506118c66118bf613117565b82906131ea565b6118d482826000015461362a565b815460009081526004602090815260408083203384529091529020546118fa8186613414565b83546000908152600460209081526040808320338452909152902055600283015485111561192a57826002015494505b60028201546119399086613656565b60028084019190915583015461194f9086613656565b600284015560038201546004808401546040516323b872dd60e01b815233928101929092526001600160a01b03908116602483015260448201889052909116906323b872dd906064016020604051808303816000875af11580156119b7573d6000803e3d6000fd5b505050506040513d601f19601f820116820180604052508101906119db9190614822565b611a1d5760405162461bcd60e51b81526020600482015260136024820152721d1c985b9cd9995c919c9bdb4819985a5b1959606a1b60448201526064016102dc565b611a2682613208565b825460405186815233916001600160a01b038a16917fb42c5f4d7454a3dbf5af30732b0d66efa11d73c66cef1f5732fa84b7e63cf99a9060200160405180910390a48493505050506113d860018055565b60608267ffffffffffffffff811115611a9257611a9261483f565b604051908082528060200260200182016040528015611afe57816020015b611aeb6040518060a001604052806000815260200160006001600160a01b031681526020016000815260200160008152602001600081525090565b815260200190600190039081611ab05790505b50905060005b83811015610c8f57848482818110611b1e57611b1e6149fb565b90506020020135828281518110611b3757611b376149fb565b6020026020010151600001818152505082828281518110611b5a57611b5a6149fb565b6020908102919091018101516001600160a01b0390921691015260026000868684818110611b8a57611b8a6149fb565b6020908102929092013583525081019190915260409081016000206005015490516370a0823160e01b81526001600160a01b038581166004830152909116906370a0823190602401602060405180830381865afa158015611bef573d6000803e3d6000fd5b505050506040513d601f19601f82011682018060405250810190611c139190614a11565b828281518110611c2557611c256149fb565b6020026020010151604001818152505060026000868684818110611c4b57611c4b6149fb565b60209081029290920135835250810191909152604090810160002060049081015491516370a0823160e01b81526001600160a01b03868116928201929092529116906370a0823190602401602060405180830381865afa158015611cb3573d6000803e3d6000fd5b505050506040513d601f19601f82011682018060405250810190611cd79190614a11565b828281518110611ce957611ce96149fb565b60200260200101516060018181525050611e01670de0b6b3a7640000610cde60026000898987818110611d1e57611d1e6149fb565b90506020020135815260200190815260200160002073__$d3b4366daeb9cadc7528af6145b50b2183$__63ffe2cb5490916040518263ffffffff1660e01b8152600401611d6d91815260200190565b602060405180830381865af4158015611d8a573d6000803e3d6000fd5b505050506040513d601f19601f82011682018060405250810190611dae9190614a11565b611dfb868681518110611dc357611dc36149fb565b602002602001015160600151878781518110611de157611de16149fb565b60200260200101516040015161341490919063ffffffff16565b90612b56565b828281518110611e1357611e136149fb565b60209081029190910101516080015280611e2c81614a2a565b915050611b04565b611e3c612a79565b600854604080518082019091526002815261383360f01b60208201529060ff1615611e7a5760405162461bcd60e51b81526004016102dc91906142c7565b506127108161ffff161115611ec35760405162461bcd60e51b815260206004820152600f60248201526e1a5b9d985b1a59081c195c98d95b9d608a1b60448201526064016102dc565b600091825260026020526040909120600c01805461ffff909216600160801b0261ffff60801b19909216919091179055565b60608167ffffffffffffffff811115611f1057611f1061483f565b604051908082528060200260200182016040528015611fa457816020015b611f916040518061010001604052806000815260200160006001600160a01b0316815260200160006001600160a01b0316815260200160006001600160a01b03168152602001600081526020016000815260200160008152602001600081525090565b815260200190600190039081611f2e5790505b50905060005b828110156122ea57838382818110611fc457611fc46149fb565b90506020020135828281518110611fdd57611fdd6149fb565b60209081029190910101515260026000858584818110611fff57611fff6149fb565b90506020020135815260200190815260200160002060030160009054906101000a90046001600160a01b031682828151811061203d5761203d6149fb565b6020908102919091018101516001600160a01b039092169101526002600085858481811061206d5761206d6149fb565b90506020020135815260200190815260200160002060040160009054906101000a90046001600160a01b03168282815181106120ab576120ab6149fb565b6020026020010151604001906001600160a01b031690816001600160a01b031681525050600260008585848181106120e5576120e56149fb565b90506020020135815260200190815260200160002060050160009054906101000a90046001600160a01b0316828281518110612123576121236149fb565b6020026020010151606001906001600160a01b031690816001600160a01b03168152505061217a60026000868685818110612160576121606149fb565b905060200201358152602001908152602001600020612ad3565b83838151811061218c5761218c6149fb565b60200260200101516080018484815181106121a9576121a96149fb565b602090810291909101015160a0019190915252600260008585848181106121d2576121d26149fb565b90506020020135815260200190815260200160002073__$d3b4366daeb9cadc7528af6145b50b2183$__63ffe2cb5490916040518263ffffffff1660e01b815260040161222191815260200190565b602060405180830381865af415801561223e573d6000803e3d6000fd5b505050506040513d601f19601f820116820180604052508101906122629190614a11565b828281518110612274576122746149fb565b602002602001015160c00181815250506122b76002600086868581811061229d5761229d6149fb565b90506020020135815260200190815260200160002061337d565b8282815181106122c9576122c96149fb565b602090810291909101015160e00152806122e281614a2a565b915050611faa565b5092915050565b600854604080518082019091526002815261383360f01b60208201529060ff161561232f5760405162461bcd60e51b81526004016102dc91906142c7565b50612338612b6e565b3360009081526005602090815260409182902054825180840190935260018352600760fb1b9183019190915260ff166123845760405162461bcd60e51b81526004016102dc91906142c7565b50600082815260066020526040902060018101546001600160a01b0316336001600160a01b031614604051806040016040528060018152602001603760f81b815250906123e45760405162461bcd60e51b81526004016102dc91906142c7565b5060006123f482600001546130c9565b600d810154909150610100900460ff1615604051806040016040528060018152602001601960f91b8152509061243d5760405162461bcd60e51b81526004016102dc91906142c7565b50600d81015462010000900460ff16604051806040016040528060018152602001601b60f91b815250906124845760405162461bcd60e51b81526004016102dc91906142c7565b506124906118bf613117565b61249e82826000015461362a565b815460009081526004602090815260408083203384528252918290205482518084019093526002835261313160f01b9183019190915290818511156124f65760405162461bcd60e51b81526004016102dc91906142c7565b506125018185613656565b8354600090815260046020908152604080832033845290915290205561252682613662565b84111560405180604001604052806002815260200161038360f41b815250906125625760405162461bcd60e51b81526004016102dc91906142c7565b5060028201546125729085613414565b6002808401919091558301546125889085613414565b6002840155600482810154604051634efecaa560e01b81523392810192909252602482018690526001600160a01b031690634efecaa5906044016020604051808303816000875af11580156125e1573d6000803e3d6000fd5b505050506040513d601f19601f820116820180604052508101906126059190614a11565b5061260f82613208565b82546040518581526001600160a01b0388169133917ff9a33434428db5f0416c03e38307599ad0b9b9965d6c070eb08e87cc1f0ca50e9060200160405180910390a450505061265d60018055565b505050565b600854604080518082019091526002815261383360f01b602082015260009160ff16156126a25760405162461bcd60e51b81526004016102dc91906142c7565b506126ab612b6e565b60006126b6866130c9565b90506000198503612733576004818101546040516370a0823160e01b815233928101929092526001600160a01b0316906370a0823190602401602060405180830381865afa15801561270c573d6000803e3d6000fd5b505050506040513d601f19601f820116820180604052508101906127309190614a11565b94505b6004818101546040516323b872dd60e01b81523392810192909252306024830152604482018790526001600160a01b0316906323b872dd906064016020604051808303816000875af115801561278d573d6000803e3d6000fd5b505050506040513d601f19601f820116820180604052508101906127b19190614822565b6127f35760405162461bcd60e51b81526020600482015260136024820152721d1c985b9cd9995c919c9bdb4819985a5b1959606a1b60448201526064016102dc565b6000610e5a87878787612d4d565b612809612a79565b600854604080518082019091526002815261383360f01b60208201529060ff16156128475760405162461bcd60e51b81526004016102dc91906142c7565b50600061285382612f7f565b6001600160a01b038116600081815260056020526040808220805460ff1916905551929350909184917f266d20f5da30c718389bad72969f180f75a167591179550c0eb3010856cdca0991a35050565b6000818152600260205260408082209051600162074d2b60e21b031981526004810182905273__$d3b4366daeb9cadc7528af6145b50b2183$__9063ffe2cb5490602401602060405180830381865af4158015612904573d6000803e3d6000fd5b505050506040513d601f19601f820116820180604052508101906113d89190614a11565b6000818152600260205260408120610d4d81612ad3565b612947612a79565b6001600160a01b0381166129ac5760405162461bcd60e51b815260206004820152602660248201527f4f776e61626c653a206e6577206f776e657220697320746865207a65726f206160448201526564647265737360d01b60648201526084016102dc565b6129b5816133c4565b50565b6129c0612a79565b600854604080518082019091526002815261383360f01b60208201529060ff16156129fe5760405162461bcd60e51b81526004016102dc91906142c7565b506000818152600260205260409020610bf7816001613420565b612a20612a79565b600854604080518082019091526002815261383360f01b60208201529060ff1615612a5e5760405162461bcd60e51b81526004016102dc91906142c7565b50600081815260026020526040812090610bf7908290613420565b6000546001600160a01b031633146114085760405162461bcd60e51b815260206004820181905260248201527f4f776e61626c653a2063616c6c6572206973206e6f7420746865206f776e657260448201526064016102dc565b600080612adf836136db565b9050612af481612aee85613662565b90613414565b9150915091565b600c8101546000906001600160801b03428116911603612b1a57505490565b6001820154600c830154612b5091670de0b6b3a764000091610cde91612b48916001600160801b03166136f6565b855490612b56565b92915050565b60006113d88284614a43565b60006113d88284614a5a565b600260015403612bc05760405162461bcd60e51b815260206004820152601f60248201527f5265656e7472616e637947756172643a207265656e7472616e742063616c6c0060448201526064016102dc565b6002600155565b600080612bd3866130c9565b600d810154909150610100900460ff1615604051806040016040528060018152602001601960f91b81525090612c1c5760405162461bcd60e51b81526004016102dc91906142c7565b5060038101546001600160a01b0316612c3661107b613117565b612c408287613703565b6000612c4b836137a3565b60048401549091506001600160a01b0316612c688333838b613866565b612c7e670de0b6b3a7640000610cde8a85612b56565b6040516340c10f1960e01b81526001600160a01b03898116600483015260248201839052919650908216906340c10f1990604401600060405180830381600087803b158015612ccc57600080fd5b505af1158015612ce0573d6000803e3d6000fd5b50505050612ced84613208565b60408051338152602081018a905290810186905261ffff8716906001600160a01b038916908b907f80dbbde6b5d5b7762317d49e776cfe47269b6e392cfdc76540b0cde8c82a23ce9060600160405180910390a450505050949350505050565b600080612d59866130c9565b9050612d666118bf613117565b6000612df4670de0b6b3a7640000610cde888573__$d3b4366daeb9cadc7528af6145b50b2183$__63ffe2cb5490916040518263ffffffff1660e01b8152600401612db391815260200190565b602060405180830381865af4158015612dd0573d6000803e3d6000fd5b505050506040513d601f19601f82011682018060405250810190611dfb9190614a11565b9050612dff82613662565b811115604051806040016040528060018152602001603360f81b81525090612e3a5760405162461bcd60e51b81526004016102dc91906142c7565b5060038201547f00000000000000000000000000000000000000000000000000000000000000006001600160a01b039081169116148015612e785750835b15612efa57600482810154604051637a94c56560e11b8152309281019290925260248201889052604482018390526001600160a01b03169063f5298aca90606401600060405180830381600087803b158015612ed357600080fd5b505af1158015612ee7573d6000803e3d6000fd5b50505050612ef58186613a1e565b612f6c565b600482810154604051637a94c56560e11b81526001600160a01b0388811693820193909352602481018990526044810184905291169063f5298aca90606401600060405180830381600087803b158015612f5357600080fd5b505af1158015612f67573d6000803e3d6000fd5b505050505b612f7582613208565b9695505050505050565b604051635c9fcd8560e11b8152600a600482015260009081906001600160a01b037f0000000000000000000000000000000000000000000000000000000000000000169063b93f9b0a90602401602060405180830381865afa158015612fe9573d6000803e3d6000fd5b505050506040513d601f19601f8201168201806040525081019061300d91906149de565b604051634632752560e11b8152600481018590529091506001600160a01b03821690638c64ea4a90602401602060405180830381865afa158015613055573d6000803e3d6000fd5b505050506040513d601f19601f8201168201806040525081019061307991906149de565b91506001600160a01b0382166130c35760405162461bcd60e51b815260206004820152600f60248201526e125b9d985b1a590815985d5b1d1259608a1b60448201526064016102dc565b50919050565b6000818152600260205260409020600d81015460ff16604051806040016040528060018152602001603160f81b815250906130c35760405162461bcd60e51b81526004016102dc91906142c7565b604051635c9fcd8560e11b8152600b60048201526000907f00000000000000000000000000000000000000000000000000000000000000006001600160a01b03169063b93f9b0a90602401602060405180830381865afa15801561317f573d6000803e3d6000fd5b505050506040513d601f19601f820116820180604052508101906131a391906149de565b604080518082019091526002815261323360f01b60208201529091506001600160a01b0382166131e65760405162461bcd60e51b81526004016102dc91906142c7565b5090565b60028201546131f883613b73565b61265d8382856002015485613c0d565b61321d816008016132188361338b565b613cf1565b600190910155565b600d9091018054911515620100000262ff000019909216919091179055565b613260612710610cde670de0b6b3a764000061ffff8916612b56565b6008870180546001600160801b0319166001600160801b039290921691909117905561329e612710610cde670de0b6b3a764000061ffff8816612b56565b6008870180546001600160801b03928316600160801b0292169190911790556132d9612710610cde670de0b6b3a764000061ffff8716612b56565b6009870180546001600160801b0319166001600160801b0392909216919091179055613317612710610cde670de0b6b3a764000061ffff8616612b56565b6009870180546001600160801b03928316600160801b029216919091179055613352612710610cde670de0b6b3a764000061ffff8516612b56565b600a9690960180546001600160801b0319166001600160801b03909716969096179095555050505050565b6000612b5082600801613218845b600080600061339984612ad3565b909250905081156133bd576133ba82610cde83670de0b6b3a7640000612b56565b92505b5050919050565b600080546001600160a01b038381166001600160a01b0319831681178455604051919092169283917f8be0079c531659141344cd1fd0a4f28419497f9722a3daafe3b4186f6b6457e09190a35050565b60006113d8828461480f565b600d91909101805460ff1916911515919091179055565b6003860180546001600160a01b038088166001600160a01b031992831617909255600488018054928716929091169190911790556006860183905560078601829055600b8601819055600c86018054670de0b6b3a76400008855607d60831b71ffffffffffffffffffffffffffffffffffff199091166001600160801b034216171790556134d3866117706105dc612328610960613a98613244565b505050505050565b6000818152600260205260409020600401546001600160a01b0316806135135760405162461bcd60e51b81526004016102dc906147d6565b604051634c96a38960e01b81526001600160a01b038216600482015273__$2100268f8e5a57a998323adb6c3c9a2fae$__90634c96a38990602401602060405180830381865af415801561356b573d6000803e3d6000fd5b505050506040513d601f19601f8201168201806040525081019061358f91906149de565b600083815260026020526040902060050180546001600160a01b03929092166001600160a01b03199092168217905563f2fde38b6135d56000546001600160a01b031690565b6040516001600160e01b031960e084901b1681526001600160a01b039091166004820152602401600060405180830381600087803b15801561361657600080fd5b505af11580156134d3573d6000803e3d6000fd5b6136498260030154610cde838560020154612b5690919063ffffffff16565b6002830155600390910155565b60006113d88284614a7c565b60038101546004808301546040516370a0823160e01b81526001600160a01b039182169281019290925260009216906370a0823190602401602060405180830381865afa1580156136b7573d6000803e3d6000fd5b505050506040513d601f19601f82011682018060405250810190612b509190614a11565b6000612b508260000154610cde8460020154611dfb86612afb565b60006113d8838342613ebe565b8160070154811115604051806040016040528060018152602001603960f81b815250906137435760405162461bcd60e51b81526004016102dc91906142c7565b50600061374f83612ad3565b5060068401549091506137628284613414565b111560405180604001604052806002815260200161031360f41b8152509061379d5760405162461bcd60e51b81526004016102dc91906142c7565b50505050565b6000806137af83612ad3565b50905060008360040160009054906101000a90046001600160a01b03166001600160a01b03166318160ddd6040518163ffffffff1660e01b8152600401602060405180830381865afa158015613809573d6000803e3d6000fd5b505050506040513d601f19601f8201168201806040525081019061382d9190614a11565b905080158061383a575081155b156138505750670de0b6b3a76400009392505050565b6133ba82610cde83670de0b6b3a7640000612b56565b7f00000000000000000000000000000000000000000000000000000000000000006001600160a01b0316846001600160a01b03161480156138a75750804710155b156139f7577f00000000000000000000000000000000000000000000000000000000000000006001600160a01b031663d0e30db0826040518263ffffffff1660e01b81526004016000604051808303818588803b15801561390757600080fd5b505af115801561391b573d6000803e3d6000fd5b505060405163a9059cbb60e01b81526001600160a01b038681166004830152602482018690527f000000000000000000000000000000000000000000000000000000000000000016935063a9059cbb925060440190506020604051808303816000875af1158015613990573d6000803e3d6000fd5b505050506040513d601f19601f820116820180604052508101906139b49190614822565b6139f25760405162461bcd60e51b815260206004820152600f60248201526e1d1c985b9cd9995c8819985a5b1959608a1b60448201526064016102dc565b61379d565b306001600160a01b03841603613a12576139f2848383613fd2565b61379d848484846140d2565b6040516370a0823160e01b81523060048201526000907f00000000000000000000000000000000000000000000000000000000000000006001600160a01b0316906370a0823190602401602060405180830381865afa158015613a85573d6000803e3d6000fd5b505050506040513d601f19601f82011682018060405250810190613aa99190614a11565b90508281101560405180604001604052806002815260200161062760f31b81525090613ae85760405162461bcd60e51b81526004016102dc91906142c7565b50801561265d57604051632e1a7d4d60e01b8152600481018290527f00000000000000000000000000000000000000000000000000000000000000006001600160a01b031690632e1a7d4d90602401600060405180830381600087803b158015613b5157600080fd5b505af1158015613b65573d6000803e3d6000fd5b5050505061265d82826141d4565b80546002820154801561265d57613b8983612afb565b83546002850154919350613ba291610cde908590612b56565b6040805180820190915260028152611c1960f11b60208201529091506001600160801b03831115613be65760405162461bcd60e51b81526004016102dc91906142c7565b509082556002820155600c0180546001600160801b031916426001600160801b0316179055565b600c840154600160801b900461ffff166000819003613c2c575061379d565b6000613c388486613656565b90506000613c4c612710610cde8486612b56565b90506000613c59886137a3565b90506000613c73670de0b6b3a7640000610cde8585612b56565b90508015613ce657600489810154604051630437b5ab60e11b81526001600160a01b03898116938201939093526024810184905291169063086f6b5690604401600060405180830381600087803b158015613ccd57600080fd5b505af1158015613ce1573d6000803e3d6000fd5b505050505b505050505050505050565b81546000906001600160801b03168211613d5b5782546001600160801b0316600003613d2f57508154600160801b90046001600160801b0316612b50565b8254613d54906001600160801b0380821691610cde918691600160801b900416612b56565b9050612b50565b60018301546001600160801b03168211613e1457825460018401546001600160801b03918216911603613da357506001820154600160801b90046001600160801b0316612b50565b82546001840154613d54916001600160801b03600160801b8204811692612aee92613dd2929182169116613656565b8654610cde90613dec9088906001600160801b0316613656565b885460018a0154611dfb916001600160801b03600160801b9283900481169290910416613656565b6001830154670de0b6b3a76400006001600160801b0390911610613e46575060028201546001600160801b0316612b50565b60018301546113d8906001600160801b03600160801b8204811691612aee91613e7991670de0b6b3a76400009116613656565b6001870154610cde90613e969088906001600160801b0316613656565b600189015460028a0154611dfb916001600160801b0391821691600160801b90910416613656565b600080613ed4836001600160801b038616613656565b905080600003613eef57670de0b6b3a76400009150506113d8565b6000613efc600183614a7c565b9050600060028311613f0f576000613f1a565b613f1a600284614a7c565b90506000613f2c886301e13380612b62565b90506000613f46670de0b6b3a7640000610cde8480612b56565b90506000613f60670de0b6b3a7640000610cde8486612b56565b905060006002613f7484611dfb8a8a612b56565b613f7e9190614a5a565b905060006006613f9484611dfb89818d8d612b56565b613f9e9190614a5a565b9050613fc281612aee8481613fb38a8e612b56565b670de0b6b3a764000090613414565b9c9b505050505050505050505050565b604080516001600160a01b038481166024830152604480830185905283518084039091018152606490920183526020820180516001600160e01b031663a9059cbb60e01b179052915160009283929087169161402e9190614a8f565b6000604051808303816000865af19150503d806000811461406b576040519150601f19603f3d011682016040523d82523d6000602084013e614070565b606091505b509150915081801561409a57508051158061409a57508080602001905181019061409a9190614822565b6140cb5760405162461bcd60e51b815260206004820152600260248201526114d560f21b60448201526064016102dc565b5050505050565b604080516001600160a01b0385811660248301528481166044830152606480830185905283518084039091018152608490920183526020820180516001600160e01b03166323b872dd60e01b17905291516000928392908816916141369190614a8f565b6000604051808303816000865af19150503d8060008114614173576040519150601f19603f3d011682016040523d82523d6000602084013e614178565b606091505b50915091508180156141a25750805115806141a25750808060200190518101906141a29190614822565b6134d35760405162461bcd60e51b815260206004820152600360248201526229aa2360e91b60448201526064016102dc565b604080516000808252602082019092526001600160a01b0384169083906040516141fe9190614a8f565b60006040518083038185875af1925050503d806000811461423b576040519150601f19603f3d011682016040523d82523d6000602084013e614240565b606091505b505090508061265d5760405162461bcd60e51b815260206004820152600360248201526253544560e81b60448201526064016102dc565b60005b8381101561429257818101518382015260200161427a565b50506000910152565b600081518084526142b3816020860160208601614277565b601f01601f19169290920160200192915050565b6020815260006113d8602083018461429b565b6000602082840312156142ec57600080fd5b5035919050565b6001600160a01b03811681146129b557600080fd5b60006020828403121561431a57600080fd5b81356113d8816142f3565b803561ffff8116811461109f57600080fd5b6000806000806080858703121561434d57600080fd5b84359350602085013592506040850135614366816142f3565b915061437460608601614325565b905092959194509250565b80151581146129b557600080fd5b600080600080608085870312156143a357600080fd5b843593506020850135925060408501356143bc816142f3565b915060608501356143cc8161437f565b939692955090935050565b60008060008060008060c087890312156143f057600080fd5b8635955061440060208801614325565b945061440e60408801614325565b935061441c60608801614325565b925061442a60808801614325565b915061443860a08801614325565b90509295509295509295565b6000806040838503121561445757600080fd5b823591506020830135614469816142f3565b809150509250929050565b60008060006060848603121561448957600080fd5b505081359360208301359350604090920135919050565b6000610260820190508e82528d60208301528c604083015260018060a01b03808d166060840152808c166080840152808b1660a0840152508860c08301528760e08301526001600160801b03808851166101008401528060208901511661012084015280604089015116610140840152806060890151166101608401528060808901511661018084015250856101a08301526145486101c08301866001600160801b03169052565b61ffff84166101e08301528251151561020083015260208301511515610220830152604083015115156102408301529e9d5050505050505050505050505050565b60008060006060848603121561459e57600080fd5b83356145a9816142f3565b95602085013595506040909401359392505050565b60008083601f8401126145d057600080fd5b50813567ffffffffffffffff8111156145e857600080fd5b6020830191508360208260051b850101111561460357600080fd5b9250929050565b60008060006040848603121561461f57600080fd5b833567ffffffffffffffff81111561463657600080fd5b614642868287016145be565b9094509250506020840135614656816142f3565b809150509250925092565b602080825282518282018190526000919060409081850190868401855b828110156146cb57815180518552868101516001600160a01b0316878601528581015186860152606080820151908601526080908101519085015260a0909301929085019060010161467e565b5091979650505050505050565b600080604083850312156146eb57600080fd5b823591506146fb60208401614325565b90509250929050565b6000806020838503121561471757600080fd5b823567ffffffffffffffff81111561472e57600080fd5b61473a858286016145be565b90969095509350505050565b602080825282518282018190526000919060409081850190868401855b828110156146cb57815180518552868101516001600160a01b039081168887015286820151811687870152606080830151909116908601526080808201519086015260a0808201519086015260c0808201519086015260e090810151908501526101009093019290850190600101614763565b6020808252600990820152680416464726573733d360bc1b604082015260600190565b634e487b7160e01b600052601160045260246000fd5b80820180821115612b5057612b506147f9565b60006020828403121561483457600080fd5b81516113d88161437f565b634e487b7160e01b600052604160045260246000fd5b60006020828403121561486757600080fd5b815167ffffffffffffffff8082111561487f57600080fd5b818401915084601f83011261489357600080fd5b8151818111156148a5576148a561483f565b604051601f8201601f19908116603f011681019083821181831017156148cd576148cd61483f565b816040528281528760208487010111156148e657600080fd5b6148f7836020830160208801614277565b979650505050505050565b60008251614914818460208701614277565b7f284578747261466920496e7465726573742042656172696e6720546f6b656e29920191825250602001919050565b606560f81b81526000825161495f816001850160208701614277565b9190910160010192915050565b60006020828403121561497e57600080fd5b815160ff811681146113d857600080fd5b60a0815260006149a260a083018861429b565b82810360208401526149b4818861429b565b60ff96909616604084015250506001600160a01b0392909216606083015260809091015292915050565b6000602082840312156149f057600080fd5b81516113d8816142f3565b634e487b7160e01b600052603260045260246000fd5b600060208284031215614a2357600080fd5b5051919050565b600060018201614a3c57614a3c6147f9565b5060010190565b8082028115828204841417612b5057612b506147f9565b600082614a7757634e487b7160e01b600052601260045260246000fd5b500490565b81810381811115612b5057612b506147f9565b60008251614aa1818460208701614277565b919091019291505056fea26469706673582212206470e9fbcd049101db0d78c4cd4f8c1e48c93f45bb693e3255d7e5d3144dc1f764736f6c63430008120033",
  "linkReferences": {
    "contracts/libraries/logic/ETokenDeployer.sol": {
      "ETokenDeployer": [
        {
          "length": 20,
          "start": 6196
        }
      ]
    },
    "contracts/libraries/logic/ReserveLogic.sol": {
      "ReserveLogic": [
        {
          "length": 20,
          "start": 8072
        },
        {
          "length": 20,
          "start": 9276
        },
        {
          "length": 20,
          "start": 11037
        },
        {
          "length": 20,
          "start": 12238
        }
      ]
    },
    "contracts/libraries/logic/StakingRewardsDeployer.sol": {
      "StakingRewardsDeployer": [
        {
          "length": 20,
          "start": 14212
        }
      ]
    }
  },
  "deployedLinkReferences": {
    "contracts/libraries/logic/ETokenDeployer.sol": {
      "ETokenDeployer": [
        {
          "length": 20,
          "start": 5601
        }
      ]
    },
    "contracts/libraries/logic/ReserveLogic.sol": {
      "ReserveLogic": [
        {
          "length": 20,
          "start": 7477
        },
        {
          "length": 20,
          "start": 8681
        },
        {
          "length": 20,
          "start": 10442
        },
        {
          "length": 20,
          "start": 11643
        }
      ]
    },
    "contracts/libraries/logic/StakingRewardsDeployer.sol": {
      "StakingRewardsDeployer": [
        {
          "length": 20,
          "start": 13617
        }
      ]
    }
  }
}