{
  "_format": "hh-sol-artifact-1",
  "contractName": "RewardDistributor",
  "sourceName": "contracts/RewardsDistributor.sol",
  "abi": [
    {
      "inputs": [
        {
          "internalType": "address",
          "name": "emergencyReturnAddress",
          "type": "address"
        },
        {
          "internalType": "address",
          "name": "veTokenAddress",
          "type": "address"
        },
        {
          "internalType": "address",
          "name": "rewardTokenAddress",
          "type": "address"
        },
        {
          "internalType": "uint256",
          "name": "_startTime",
          "type": "uint256"
        }
      ],
      "stateMutability": "nonpayable",
      "type": "constructor"
    },
    {
      "anonymous": false,
      "inputs": [
        {
          "indexed": false,
          "internalType": "bool",
          "name": "_allowed",
          "type": "bool"
        }
      ],
      "name": "CheckpointAllowed",
      "type": "event"
    },
    {
      "anonymous": false,
      "inputs": [
        {
          "indexed": true,
          "internalType": "address",
          "name": "_recipient",
          "type": "address"
        },
        {
          "indexed": false,
          "internalType": "bool",
          "name": "_staked",
          "type": "bool"
        },
        {
          "indexed": false,
          "internalType": "uint256",
          "name": "_amount",
          "type": "uint256"
        },
        {
          "indexed": false,
          "internalType": "uint256",
          "name": "_lastRewardClaimTime",
          "type": "uint256"
        },
        {
          "indexed": false,
          "internalType": "uint256",
          "name": "_rewardClaimedTill",
          "type": "uint256"
        }
      ],
      "name": "Claimed",
      "type": "event"
    },
    {
      "anonymous": false,
      "inputs": [],
      "name": "Killed",
      "type": "event"
    },
    {
      "anonymous": false,
      "inputs": [
        {
          "indexed": false,
          "internalType": "uint256",
          "name": "_oldNo",
          "type": "uint256"
        },
        {
          "indexed": false,
          "internalType": "uint256",
          "name": "_newNo",
          "type": "uint256"
        }
      ],
      "name": "MaxIterationsUpdated",
      "type": "event"
    },
    {
      "anonymous": false,
      "inputs": [
        {
          "indexed": true,
          "internalType": "address",
          "name": "previousOwner",
          "type": "address"
        },
        {
          "indexed": true,
          "internalType": "address",
          "name": "newOwner",
          "type": "address"
        }
      ],
      "name": "OwnershipTransferred",
      "type": "event"
    },
    {
      "anonymous": false,
      "inputs": [
        {
          "indexed": false,
          "internalType": "address",
          "name": "_token",
          "type": "address"
        },
        {
          "indexed": false,
          "internalType": "uint256",
          "name": "_amount",
          "type": "uint256"
        }
      ],
      "name": "RecoveredERC20",
      "type": "event"
    },
    {
      "anonymous": false,
      "inputs": [
        {
          "indexed": false,
          "internalType": "uint256",
          "name": "_amount",
          "type": "uint256"
        }
      ],
      "name": "RewardsCheckpointed",
      "type": "event"
    },
    {
      "inputs": [],
      "name": "EMERGENCY_RETURN",
      "outputs": [
        {
          "internalType": "address",
          "name": "",
          "type": "address"
        }
      ],
      "stateMutability": "view",
      "type": "function"
    },
    {
      "inputs": [],
      "name": "REWARD_CHECKPOINT_DEADLINE",
      "outputs": [
        {
          "internalType": "uint256",
          "name": "",
          "type": "uint256"
        }
      ],
      "stateMutability": "view",
      "type": "function"
    },
    {
      "inputs": [],
      "name": "WEEK",
      "outputs": [
        {
          "internalType": "uint256",
          "name": "",
          "type": "uint256"
        }
      ],
      "stateMutability": "view",
      "type": "function"
    },
    {
      "inputs": [
        {
          "internalType": "uint256",
          "name": "value",
          "type": "uint256"
        }
      ],
      "name": "addRewards",
      "outputs": [],
      "stateMutability": "nonpayable",
      "type": "function"
    },
    {
      "inputs": [],
      "name": "canCheckpointReward",
      "outputs": [
        {
          "internalType": "bool",
          "name": "",
          "type": "bool"
        }
      ],
      "stateMutability": "view",
      "type": "function"
    },
    {
      "inputs": [],
      "name": "checkpointReward",
      "outputs": [],
      "stateMutability": "nonpayable",
      "type": "function"
    },
    {
      "inputs": [
        {
          "internalType": "bool",
          "name": "restake",
          "type": "bool"
        }
      ],
      "name": "claim",
      "outputs": [
        {
          "internalType": "uint256",
          "name": "",
          "type": "uint256"
        }
      ],
      "stateMutability": "nonpayable",
      "type": "function"
    },
    {
      "inputs": [
        {
          "internalType": "address",
          "name": "addr",
          "type": "address"
        },
        {
          "internalType": "bool",
          "name": "restake",
          "type": "bool"
        }
      ],
      "name": "claim",
      "outputs": [
        {
          "internalType": "uint256",
          "name": "",
          "type": "uint256"
        }
      ],
      "stateMutability": "nonpayable",
      "type": "function"
    },
    {
      "inputs": [
        {
          "internalType": "address",
          "name": "addr",
          "type": "address"
        }
      ],
      "name": "computeRewards",
      "outputs": [
        {
          "internalType": "uint256",
          "name": "",
          "type": "uint256"
        },
        {
          "internalType": "uint256",
          "name": "",
          "type": "uint256"
        },
        {
          "internalType": "uint256",
          "name": "",
          "type": "uint256"
        }
      ],
      "stateMutability": "view",
      "type": "function"
    },
    {
      "inputs": [],
      "name": "isKilled",
      "outputs": [
        {
          "internalType": "bool",
          "name": "",
          "type": "bool"
        }
      ],
      "stateMutability": "view",
      "type": "function"
    },
    {
      "inputs": [],
      "name": "killMe",
      "outputs": [],
      "stateMutability": "nonpayable",
      "type": "function"
    },
    {
      "inputs": [],
      "name": "lastRewardBalance",
      "outputs": [
        {
          "internalType": "uint256",
          "name": "",
          "type": "uint256"
        }
      ],
      "stateMutability": "view",
      "type": "function"
    },
    {
      "inputs": [],
      "name": "lastRewardCheckpointTime",
      "outputs": [
        {
          "internalType": "uint256",
          "name": "",
          "type": "uint256"
        }
      ],
      "stateMutability": "view",
      "type": "function"
    },
    {
      "inputs": [],
      "name": "maxIterations",
      "outputs": [
        {
          "internalType": "uint256",
          "name": "",
          "type": "uint256"
        }
      ],
      "stateMutability": "view",
      "type": "function"
    },
    {
      "inputs": [],
      "name": "owner",
      "outputs": [
        {
          "internalType": "address",
          "name": "",
          "type": "address"
        }
      ],
      "stateMutability": "view",
      "type": "function"
    },
    {
      "inputs": [
        {
          "internalType": "address",
          "name": "_coin",
          "type": "address"
        }
      ],
      "name": "recoverERC20",
      "outputs": [],
      "stateMutability": "nonpayable",
      "type": "function"
    },
    {
      "inputs": [],
      "name": "renounceOwnership",
      "outputs": [],
      "stateMutability": "nonpayable",
      "type": "function"
    },
    {
      "inputs": [],
      "name": "rewardToken",
      "outputs": [
        {
          "internalType": "address",
          "name": "",
          "type": "address"
        }
      ],
      "stateMutability": "view",
      "type": "function"
    },
    {
      "inputs": [
        {
          "internalType": "uint256",
          "name": "",
          "type": "uint256"
        }
      ],
      "name": "rewardsPerWeek",
      "outputs": [
        {
          "internalType": "uint256",
          "name": "",
          "type": "uint256"
        }
      ],
      "stateMutability": "view",
      "type": "function"
    },
    {
      "inputs": [],
      "name": "startTime",
      "outputs": [
        {
          "internalType": "uint256",
          "name": "",
          "type": "uint256"
        }
      ],
      "stateMutability": "view",
      "type": "function"
    },
    {
      "inputs": [
        {
          "internalType": "address",
          "name": "",
          "type": "address"
        }
      ],
      "name": "timeCursorOf",
      "outputs": [
        {
          "internalType": "uint256",
          "name": "",
          "type": "uint256"
        }
      ],
      "stateMutability": "view",
      "type": "function"
    },
    {
      "inputs": [],
      "name": "toggleAllowCheckpointReward",
      "outputs": [],
      "stateMutability": "nonpayable",
      "type": "function"
    },
    {
      "inputs": [
        {
          "internalType": "address",
          "name": "newOwner",
          "type": "address"
        }
      ],
      "name": "transferOwnership",
      "outputs": [],
      "stateMutability": "nonpayable",
      "type": "function"
    },
    {
      "inputs": [
        {
          "internalType": "uint256",
          "name": "newIterationNum",
          "type": "uint256"
        }
      ],
      "name": "updateMaxIterations",
      "outputs": [],
      "stateMutability": "nonpayable",
      "type": "function"
    },
    {
      "inputs": [],
      "name": "veToken",
      "outputs": [
        {
          "internalType": "address",
          "name": "",
          "type": "address"
        }
      ],
      "stateMutability": "view",
      "type": "function"
    },
    {
      "inputs": [
        {
          "internalType": "uint256",
          "name": "",
          "type": "uint256"
        }
      ],
      "name": "veTokenSupply",
      "outputs": [
        {
          "internalType": "uint256",
          "name": "",
          "type": "uint256"
        }
      ],
      "stateMutability": "view",
      "type": "function"
    }
  ],
  "bytecode": "0x60e0604052600060045560326005556009805461ff00191690553480156200002657600080fd5b5060405162001cb938038062001cb9833981016040819052620000499162000110565b6200005433620000a3565b600180556001600160a01b0380851660805283811660a052821660c052600062093a8062000083818462000162565b6200008f919062000185565b600281905560035550620001b19350505050565b600080546001600160a01b038381166001600160a01b0319831681178455604051919092169283917f8be0079c531659141344cd1fd0a4f28419497f9722a3daafe3b4186f6b6457e09190a35050565b80516001600160a01b03811681146200010b57600080fd5b919050565b600080600080608085870312156200012757600080fd5b6200013285620000f3565b93506200014260208601620000f3565b92506200015260408601620000f3565b6060959095015193969295505050565b6000826200018057634e487b7160e01b600052601260045260246000fd5b500490565b8082028115828204841417620001ab57634e487b7160e01b600052601160045260246000fd5b92915050565b60805160a05160c051611a6862000251600039600081816103a20152818161053401528181610620015281816106b4015281816108f90152818161096e01528181610a320152610d5d0152600081816101e701528181610556015281816105b201528181610e4e0152818161104a015281816113250152818161141f015261160e015260008181610226015281816107b401526108cf0152611a686000f3fe608060405234801561001057600080fd5b506004361061018e5760003560e01c80639e8c708e116100de578063d155438311610097578063f2fde38b11610071578063f2fde38b14610380578063f4359ce514610393578063f7c618c11461039d578063fa4caa74146103c457600080fd5b8063d155438314610345578063da9c5cb514610365578063eb2d33431461036d57600080fd5b80639e8c708e146102bf578063a67cfcf1146102d2578063b48ea725146102dc578063b603cd801461030a578063beceed3914610312578063c7f1ec501461032557600080fd5b806350869e8d1161014b57806378e979251161012557806378e97925146102805780638da5cb5b146102895780638fe8a1011461029a57806392fd2daf146102ac57600080fd5b806350869e8d1461025157806366bb74bf1461025b578063715018a61461027857600080fd5b8063172427e5146101935780632d81a78e146101c6578063387f504a146101d95780633b92eb23146101e257806341a4651f146102215780634671338914610248575b600080fd5b6101b36101a1366004611842565b60066020526000908152604090205481565b6040519081526020015b60405180910390f35b6101b36101d4366004611869565b6103cd565b6101b360055481565b6102097f000000000000000000000000000000000000000000000000000000000000000081565b6040516001600160a01b0390911681526020016101bd565b6102097f000000000000000000000000000000000000000000000000000000000000000081565b6101b360035481565b6102596103df565b005b6009546102689060ff1681565b60405190151581526020016101bd565b610259610434565b6101b360025481565b6000546001600160a01b0316610209565b60095461026890610100900460ff1681565b6101b36102ba3660046118a9565b610448565b6102596102cd3660046118e0565b6106aa565b6101b36201518081565b6102ef6102ea3660046118e0565b610820565b604080519384526020840192909252908201526060016101bd565b61025961088a565b610259610320366004611842565b6109c0565b6101b36103333660046118e0565b60076020526000908152604090205481565b6101b3610353366004611842565b60086020526000908152604090205481565b610259610a9c565b61025961037b366004611842565b610b36565b61025961038e3660046118e0565b610bcc565b6101b362093a8081565b6102097f000000000000000000000000000000000000000000000000000000000000000081565b6101b360045481565b60006103d93383610448565b92915050565b6103e7610c42565b6009805460ff8082161560ff1990921682179092556040519116151581527f9c7a57981f4afa45b46f857e5731c0a7702ce03d88a918144ad4446d064bca8a9060200160405180910390a1565b61043c610c42565b6104466000610c9c565b565b6000610452610cec565b600954610100900460ff161561046757600080fd5b60035460095460ff16801561048757506104846201518082611911565b42115b1561049757610494610d45565b50425b62093a806104a58183611924565b6104af9190611946565b90506000806104be8684610fdd565b6001600160a01b0388166000908152600760205260408120549294509092508190036104e957506002545b6001600160a01b0387166000908152600760205260409020839055811561064757816004600082825461051c919061195d565b909155505085156106135761057b6001600160a01b037f0000000000000000000000000000000000000000000000000000000000000000167f000000000000000000000000000000000000000000000000000000000000000084611144565b604051639a3f14f760e01b81526001600160a01b0388811660048301526fffffffffffffffffffffffffffffffff841660248301527f00000000000000000000000000000000000000000000000000000000000000001690639a3f14f790604401600060405180830381600087803b1580156105f657600080fd5b505af115801561060a573d6000803e3d6000fd5b50505050610647565b6106476001600160a01b037f0000000000000000000000000000000000000000000000000000000000000000168884611291565b60408051871515815260208101849052908101829052606081018490526001600160a01b038816907fd6cd0af7b93015e7049c48eb4510c3ad263c3336a6bf332886e9e7f152d49a2d9060800160405180910390a250925050506103d960018055565b6106b2610c42565b7f00000000000000000000000000000000000000000000000000000000000000006001600160a01b0316816001600160a01b0316036107385760405162461bcd60e51b815260206004820152601a60248201527f43616e2774207265636f76657220546f6b656e20746f6b656e7300000000000060448201526064015b60405180910390fd5b6040516370a0823160e01b81523060048201526000906001600160a01b038316906370a0823190602401602060405180830381865afa15801561077f573d6000803e3d6000fd5b505050506040513d601f19601f820116820180604052508101906107a39190611970565b90506107d96001600160a01b0383167f000000000000000000000000000000000000000000000000000000000000000083611291565b604080516001600160a01b0384168152602081018390527f55350610fe57096d8c0ffa30beede987326bccfcb0b4415804164d0dd50ce8b191015b60405180910390a15050565b6003546000908190819062093a806108388183611924565b6108429190611946565b90506000806108518784610fdd565b6001600160a01b03891660009081526007602052604081205492945090925081900361087c57506002545b909790965090945092505050565b610892610c42565b600954610100900460ff16156108a757600080fd5b6009805461ff0019166101001790556040516370a0823160e01b8152306004820152610995907f0000000000000000000000000000000000000000000000000000000000000000906001600160a01b037f000000000000000000000000000000000000000000000000000000000000000016906370a0823190602401602060405180830381865afa158015610940573d6000803e3d6000fd5b505050506040513d601f19601f820116820180604052508101906109649190611970565b6001600160a01b037f0000000000000000000000000000000000000000000000000000000000000000169190611291565b6040517f0f8eeedbc400fd6686703559f58d1e6143fdaed533f19a86c93d67a2fe4fb33190600090a1565b6109c8610cec565b600954610100900460ff16156109dd57600080fd5b60008111610a2d5760405162461bcd60e51b815260206004820152601960248201527f52657761726420616d6f756e74206d757374206265203e203000000000000000604482015260640161072f565b610a627f00000000000000000000000000000000000000000000000000000000000000006001600160a01b03163330846112c1565b60095460ff168015610a83575062015180600354610a809190611911565b42115b15610a9057610a90610d45565b610a9960018055565b50565b610aa4610cec565b6000546001600160a01b0316331480610ad9575060095460ff168015610ad9575062015180600354610ad69190611911565b42115b610b255760405162461bcd60e51b815260206004820152601960248201527f436865636b706f696e74696e67206e6f7420616c6c6f77656400000000000000604482015260640161072f565b610b2d610d45565b61044660018055565b610b3e610c42565b60008111610b8e5760405162461bcd60e51b815260206004820152601a60248201527f4d617820697465726174696f6e73206d757374206265203e2030000000000000604482015260640161072f565b600580549082905560408051828152602081018490527f3ed485b111cf66a1700cedca9ce1a71fce7bd4aa06bb996cca1de90cc77e49db9101610814565b610bd4610c42565b6001600160a01b038116610c395760405162461bcd60e51b815260206004820152602660248201527f4f776e61626c653a206e6577206f776e657220697320746865207a65726f206160448201526564647265737360d01b606482015260840161072f565b610a9981610c9c565b6000546001600160a01b031633146104465760405162461bcd60e51b815260206004820181905260248201527f4f776e61626c653a2063616c6c6572206973206e6f7420746865206f776e6572604482015260640161072f565b600080546001600160a01b038381166001600160a01b0319831681178455604051919092169283917f8be0079c531659141344cd1fd0a4f28419497f9722a3daafe3b4186f6b6457e09190a35050565b600260015403610d3e5760405162461bcd60e51b815260206004820152601f60248201527f5265656e7472616e637947756172643a207265656e7472616e742063616c6c00604482015260640161072f565b6002600155565b6040516370a0823160e01b81523060048201526000907f00000000000000000000000000000000000000000000000000000000000000006001600160a01b0316906370a0823190602401602060405180830381865afa158015610dac573d6000803e3d6000fd5b505050506040513d601f19601f82011682018060405250810190610dd09190611970565b9050600060045482610de2919061195d565b60048390556003549091506000610df9824261195d565b426003559050600062093a80610e0f8185611924565b610e199190611946565b90506000805b6014811015610fa157610e3562093a8084611911565b60405163bd85b03960e01b8152600481018590529092507f00000000000000000000000000000000000000000000000000000000000000006001600160a01b03169063bd85b03990602401602060405180830381865afa158015610e9d573d6000803e3d6000fd5b505050506040513d601f19601f82011682018060405250810190610ec19190611970565b60008481526008602052604090205542821115610f465783600003610f095760008381526006602052604081208054889290610efe908490611911565b90915550610fa19050565b83610f14864261195d565b610f1e9088611946565b610f289190611924565b60008481526006602052604081208054909190610efe908490611911565b83610f51868461195d565b610f5b9088611946565b610f659190611924565b60008481526006602052604081208054909190610f83908490611911565b90915550508194508192508080610f9990611989565b915050610e1f565b506040518581527fa100e4a2ee2ede145017e6458fc0646fdd8570cbdd2091cdacfb24a9dee172439060200160405180910390a1505050505050565b6001600160a01b0382166000908152600760205260408120548190819080820361100d5761100a866112ff565b90505b60005b600554811015611139578582101561113957604051627eeac760e11b81526001600160a01b038881166004830152602482018490526000917f00000000000000000000000000000000000000000000000000000000000000009091169062fdd58e90604401602060405180830381865afa158015611092573d6000803e3d6000fd5b505050506040513d601f19601f820116820180604052508101906110b69190611970565b90506000811180156110d5575060008381526008602052604090205415155b15611116576000838152600860209081526040808320546006909252909120546110ff9083611946565b6111099190611924565b6111139085611911565b93505b61112362093a8084611911565b925050808061113190611989565b915050611010565b509590945092505050565b8015806111be5750604051636eb1769f60e11b81523060048201526001600160a01b03838116602483015284169063dd62ed3e90604401602060405180830381865afa158015611198573d6000803e3d6000fd5b505050506040513d601f19601f820116820180604052508101906111bc9190611970565b155b6112295760405162461bcd60e51b815260206004820152603660248201527f5361666545524332303a20617070726f76652066726f6d206e6f6e2d7a65726f60448201527520746f206e6f6e2d7a65726f20616c6c6f77616e636560501b606482015260840161072f565b6040516001600160a01b03831660248201526044810182905261128c90849063095ea7b360e01b906064015b60408051601f198184030181529190526020810180516001600160e01b03166001600160e01b0319909316929092179091526114d7565b505050565b6040516001600160a01b03831660248201526044810182905261128c90849063a9059cbb60e01b90606401611255565b6040516001600160a01b03808516602483015283166044820152606481018290526112f99085906323b872dd60e01b90608401611255565b50505050565b6040516381fc83bb60e01b81526001600160a01b038281166004830152600091829182917f0000000000000000000000000000000000000000000000000000000000000000909116906381fc83bb90602401602060405180830381865afa15801561136e573d6000803e3d6000fd5b505050506040513d601f19601f820116820180604052508101906113929190611970565b9050600081116113da5760405162461bcd60e51b8152602060048201526013602482015272155cd95c881a185cc81b9bc819195c1bdcda5d606a1b604482015260640161072f565b6113e784600254836115a9565b9150816000036113f657600191505b604051637162da6960e11b81526001600160a01b038581166004830152602482018490526000917f00000000000000000000000000000000000000000000000000000000000000009091169063e2c5b4d290604401602060405180830381865afa158015611468573d6000803e3d6000fd5b505050506040513d601f19601f8201168201806040525081019061148c9190611970565b905062093a8080600161149f8285611911565b6114a9919061195d565b6114b39190611924565b6114bd9190611946565b93506002548410156114cf5760025493505b505050919050565b600061152c826040518060400160405280602081526020017f5361666545524332303a206c6f772d6c6576656c2063616c6c206661696c6564815250856001600160a01b03166116b29092919063ffffffff16565b80519091501561128c578080602001905181019061154a91906119a2565b61128c5760405162461bcd60e51b815260206004820152602a60248201527f5361666545524332303a204552433230206f7065726174696f6e20646964206e6044820152691bdd081cdd58d8d9595960b21b606482015260840161072f565b60008082815b60808110156116a757818310156116a757600060026115ce8486611911565b6115d9906001611911565b6115e39190611924565b604051637162da6960e11b81526001600160a01b038a811660048301526024820183905291925088917f0000000000000000000000000000000000000000000000000000000000000000169063e2c5b4d290604401602060405180830381865afa158015611655573d6000803e3d6000fd5b505050506040513d601f19601f820116820180604052508101906116799190611970565b1161168657809350611694565b61169160018261195d565b92505b508061169f81611989565b9150506115af565b509095945050505050565b60606116c184846000856116c9565b949350505050565b60608247101561172a5760405162461bcd60e51b815260206004820152602660248201527f416464726573733a20696e73756666696369656e742062616c616e636520666f6044820152651c8818d85b1b60d21b606482015260840161072f565b600080866001600160a01b0316858760405161174691906119e3565b60006040518083038185875af1925050503d8060008114611783576040519150601f19603f3d011682016040523d82523d6000602084013e611788565b606091505b5091509150611799878383876117a4565b979650505050505050565b6060831561181357825160000361180c576001600160a01b0385163b61180c5760405162461bcd60e51b815260206004820152601d60248201527f416464726573733a2063616c6c20746f206e6f6e2d636f6e7472616374000000604482015260640161072f565b50816116c1565b6116c183838151156118285781518083602001fd5b8060405162461bcd60e51b815260040161072f91906119ff565b60006020828403121561185457600080fd5b5035919050565b8015158114610a9957600080fd5b60006020828403121561187b57600080fd5b81356118868161185b565b9392505050565b80356001600160a01b03811681146118a457600080fd5b919050565b600080604083850312156118bc57600080fd5b6118c58361188d565b915060208301356118d58161185b565b809150509250929050565b6000602082840312156118f257600080fd5b6118868261188d565b634e487b7160e01b600052601160045260246000fd5b808201808211156103d9576103d96118fb565b60008261194157634e487b7160e01b600052601260045260246000fd5b500490565b80820281158282048414176103d9576103d96118fb565b818103818111156103d9576103d96118fb565b60006020828403121561198257600080fd5b5051919050565b60006001820161199b5761199b6118fb565b5060010190565b6000602082840312156119b457600080fd5b81516118868161185b565b60005b838110156119da5781810151838201526020016119c2565b50506000910152565b600082516119f58184602087016119bf565b9190910192915050565b6020815260008251806020840152611a1e8160408501602087016119bf565b601f01601f1916919091016040019291505056fea2646970667358221220e0a2b299665a7e3f25c28601acf06561bd0fcf2880fc9fff6403574672866af264736f6c63430008120033",
  "linkReferences": {},
  "deployedLinkReferences": {}
}