{
  "_format": "hh-sol-artifact-1",
  "contractName": "StakingRewards",
  "sourceName": "contracts/lendingpool/StakingRewards.sol",
  "abi": [
    {
      "inputs": [
        {
          "internalType": "address",
          "name": "_stakingToken",
          "type": "address"
        }
      ],
      "stateMutability": "nonpayable",
      "type": "constructor"
    },
    {
      "anonymous": false,
      "inputs": [
        {
          "indexed": true,
          "internalType": "address",
          "name": "previousOwner",
          "type": "address"
        },
        {
          "indexed": true,
          "internalType": "address",
          "name": "newOwner",
          "type": "address"
        }
      ],
      "name": "OwnershipTransferred",
      "type": "event"
    },
    {
      "anonymous": false,
      "inputs": [
        {
          "indexed": true,
          "internalType": "address",
          "name": "user",
          "type": "address"
        },
        {
          "indexed": true,
          "internalType": "address",
          "name": "rewardsToken",
          "type": "address"
        },
        {
          "indexed": false,
          "internalType": "uint256",
          "name": "claimed",
          "type": "uint256"
        }
      ],
      "name": "RewardPaid",
      "type": "event"
    },
    {
      "anonymous": false,
      "inputs": [
        {
          "indexed": false,
          "internalType": "address",
          "name": "rewardsToken",
          "type": "address"
        },
        {
          "indexed": false,
          "internalType": "uint256",
          "name": "start",
          "type": "uint256"
        },
        {
          "indexed": false,
          "internalType": "uint256",
          "name": "end",
          "type": "uint256"
        },
        {
          "indexed": false,
          "internalType": "uint256",
          "name": "total",
          "type": "uint256"
        }
      ],
      "name": "RewardsSet",
      "type": "event"
    },
    {
      "anonymous": false,
      "inputs": [
        {
          "indexed": true,
          "internalType": "address",
          "name": "user",
          "type": "address"
        },
        {
          "indexed": true,
          "internalType": "address",
          "name": "onBehalfOf",
          "type": "address"
        },
        {
          "indexed": false,
          "internalType": "uint256",
          "name": "amount",
          "type": "uint256"
        }
      ],
      "name": "Staked",
      "type": "event"
    },
    {
      "anonymous": false,
      "inputs": [
        {
          "indexed": true,
          "internalType": "address",
          "name": "user",
          "type": "address"
        },
        {
          "indexed": true,
          "internalType": "address",
          "name": "to",
          "type": "address"
        },
        {
          "indexed": false,
          "internalType": "uint256",
          "name": "amount",
          "type": "uint256"
        }
      ],
      "name": "Withdraw",
      "type": "event"
    },
    {
      "inputs": [
        {
          "internalType": "address",
          "name": "",
          "type": "address"
        }
      ],
      "name": "balanceOf",
      "outputs": [
        {
          "internalType": "uint256",
          "name": "",
          "type": "uint256"
        }
      ],
      "stateMutability": "view",
      "type": "function"
    },
    {
      "inputs": [],
      "name": "claim",
      "outputs": [],
      "stateMutability": "nonpayable",
      "type": "function"
    },
    {
      "inputs": [
        {
          "internalType": "address",
          "name": "user",
          "type": "address"
        },
        {
          "internalType": "address",
          "name": "rewardToken",
          "type": "address"
        }
      ],
      "name": "earned",
      "outputs": [
        {
          "internalType": "uint256",
          "name": "",
          "type": "uint256"
        }
      ],
      "stateMutability": "view",
      "type": "function"
    },
    {
      "inputs": [
        {
          "internalType": "address",
          "name": "",
          "type": "address"
        }
      ],
      "name": "inRewardsTokenList",
      "outputs": [
        {
          "internalType": "bool",
          "name": "",
          "type": "bool"
        }
      ],
      "stateMutability": "view",
      "type": "function"
    },
    {
      "inputs": [],
      "name": "lendingPool",
      "outputs": [
        {
          "internalType": "address",
          "name": "",
          "type": "address"
        }
      ],
      "stateMutability": "view",
      "type": "function"
    },
    {
      "inputs": [],
      "name": "owner",
      "outputs": [
        {
          "internalType": "address",
          "name": "",
          "type": "address"
        }
      ],
      "stateMutability": "view",
      "type": "function"
    },
    {
      "inputs": [],
      "name": "renounceOwnership",
      "outputs": [],
      "stateMutability": "nonpayable",
      "type": "function"
    },
    {
      "inputs": [
        {
          "internalType": "address",
          "name": "",
          "type": "address"
        }
      ],
      "name": "rewardData",
      "outputs": [
        {
          "internalType": "uint256",
          "name": "startTime",
          "type": "uint256"
        },
        {
          "internalType": "uint256",
          "name": "endTime",
          "type": "uint256"
        },
        {
          "internalType": "uint256",
          "name": "rewardRate",
          "type": "uint256"
        },
        {
          "internalType": "uint256",
          "name": "lastUpdateTime",
          "type": "uint256"
        },
        {
          "internalType": "uint256",
          "name": "rewardPerTokenStored",
          "type": "uint256"
        }
      ],
      "stateMutability": "view",
      "type": "function"
    },
    {
      "inputs": [
        {
          "internalType": "address",
          "name": "rewardToken",
          "type": "address"
        }
      ],
      "name": "rewardPerToken",
      "outputs": [
        {
          "internalType": "uint256",
          "name": "",
          "type": "uint256"
        }
      ],
      "stateMutability": "view",
      "type": "function"
    },
    {
      "inputs": [
        {
          "internalType": "uint256",
          "name": "",
          "type": "uint256"
        }
      ],
      "name": "rewardTokens",
      "outputs": [
        {
          "internalType": "address",
          "name": "",
          "type": "address"
        }
      ],
      "stateMutability": "view",
      "type": "function"
    },
    {
      "inputs": [],
      "name": "rewardsTokenListLength",
      "outputs": [
        {
          "internalType": "uint256",
          "name": "",
          "type": "uint256"
        }
      ],
      "stateMutability": "view",
      "type": "function"
    },
    {
      "inputs": [
        {
          "internalType": "address",
          "name": "rewardToken",
          "type": "address"
        },
        {
          "internalType": "uint256",
          "name": "startTime",
          "type": "uint256"
        },
        {
          "internalType": "uint256",
          "name": "endTime",
          "type": "uint256"
        },
        {
          "internalType": "uint256",
          "name": "totalRewards",
          "type": "uint256"
        }
      ],
      "name": "setReward",
      "outputs": [],
      "stateMutability": "nonpayable",
      "type": "function"
    },
    {
      "inputs": [
        {
          "internalType": "uint256",
          "name": "amount",
          "type": "uint256"
        },
        {
          "internalType": "address",
          "name": "onBehalfOf",
          "type": "address"
        }
      ],
      "name": "stake",
      "outputs": [],
      "stateMutability": "nonpayable",
      "type": "function"
    },
    {
      "inputs": [],
      "name": "stakedToken",
      "outputs": [
        {
          "internalType": "contract IERC20",
          "name": "",
          "type": "address"
        }
      ],
      "stateMutability": "view",
      "type": "function"
    },
    {
      "inputs": [],
      "name": "totalStaked",
      "outputs": [
        {
          "internalType": "uint256",
          "name": "",
          "type": "uint256"
        }
      ],
      "stateMutability": "view",
      "type": "function"
    },
    {
      "inputs": [
        {
          "internalType": "address",
          "name": "newOwner",
          "type": "address"
        }
      ],
      "name": "transferOwnership",
      "outputs": [],
      "stateMutability": "nonpayable",
      "type": "function"
    },
    {
      "inputs": [],
      "name": "update",
      "outputs": [],
      "stateMutability": "nonpayable",
      "type": "function"
    },
    {
      "inputs": [
        {
          "internalType": "address",
          "name": "",
          "type": "address"
        },
        {
          "internalType": "address",
          "name": "",
          "type": "address"
        }
      ],
      "name": "userRewardPerTokenPaid",
      "outputs": [
        {
          "internalType": "uint256",
          "name": "",
          "type": "uint256"
        }
      ],
      "stateMutability": "view",
      "type": "function"
    },
    {
      "inputs": [
        {
          "internalType": "address",
          "name": "",
          "type": "address"
        },
        {
          "internalType": "address",
          "name": "",
          "type": "address"
        }
      ],
      "name": "userRewardsClaimable",
      "outputs": [
        {
          "internalType": "uint256",
          "name": "",
          "type": "uint256"
        }
      ],
      "stateMutability": "view",
      "type": "function"
    },
    {
      "inputs": [
        {
          "internalType": "uint256",
          "name": "amount",
          "type": "uint256"
        },
        {
          "internalType": "address",
          "name": "to",
          "type": "address"
        }
      ],
      "name": "withdraw",
      "outputs": [],
      "stateMutability": "nonpayable",
      "type": "function"
    },
    {
      "inputs": [
        {
          "internalType": "uint256",
          "name": "amount",
          "type": "uint256"
        },
        {
          "internalType": "address",
          "name": "user",
          "type": "address"
        },
        {
          "internalType": "address",
          "name": "to",
          "type": "address"
        }
      ],
      "name": "withdrawByLendingPool",
      "outputs": [],
      "stateMutability": "nonpayable",
      "type": "function"
    }
  ],
  "bytecode": "0x60c0604052600160085534801561001557600080fd5b5060405162001b7538038062001b75833981016040819052610036916100a4565b61003f33610054565b6001600160a01b03166080523360a0526100d4565b600080546001600160a01b038381166001600160a01b0319831681178455604051919092169283917f8be0079c531659141344cd1fd0a4f28419497f9722a3daafe3b4186f6b6457e09190a35050565b6000602082840312156100b657600080fd5b81516001600160a01b03811681146100cd57600080fd5b9392505050565b60805160a051611a5f6200011660003960008181610328015261066f01526000818161034f0152818161057701528181610882015261126d0152611a5f6000f3fe608060405234801561001057600080fd5b50600436106101365760003560e01c80637acb7757116100b85780639f9a43f21161007c5780639f9a43f2146102e8578063a2e620451461031b578063a59a997314610323578063cc7a262e1461034a578063f122977714610371578063f2fde38b1461038457600080fd5b80637acb7757146102885780637bb7bed11461029b578063817b1cd2146102c65780638da5cb5b146102cf5780638de4e990146102e057600080fd5b80634e71d92d116100ff5780634e71d92d1461021a5780635f7938f1146102225780637035ab981461023557806370a0823114610260578063715018a61461028057600080fd5b8062f714ce1461013b5780630e596e3b146101505780631b503fa51461018e578063211dc32d146101a157806348e5d9f8146101b4575b600080fd5b61014e610149366004611818565b610397565b005b61017b61015e366004611844565b600760209081526000928352604080842090915290825290205481565b6040519081526020015b60405180910390f35b61014e61019c36600461186e565b61066d565b61017b6101af366004611844565b610985565b6101f26101c23660046118aa565b60046020819052600091825260409091208054600182015460028301546003840154939094015491939092909185565b604080519586526020860194909452928401919091526060830152608082015260a001610185565b61014e6109a8565b61014e6102303660046118c5565b610c83565b61017b610243366004611844565b600660209081526000928352604080842090915290825290205481565b61017b61026e3660046118aa565b60056020526000908152604090205481565b61014e6110c3565b61014e610296366004611818565b6110d7565b6102ae6102a93660046118fe565b6113a7565b6040516001600160a01b039091168152602001610185565b61017b60035481565b6000546001600160a01b03166102ae565b60015461017b565b61030b6102f63660046118aa565b60026020526000908152604090205460ff1681565b6040519015158152602001610185565b61014e6113d1565b6102ae7f000000000000000000000000000000000000000000000000000000000000000081565b6102ae7f000000000000000000000000000000000000000000000000000000000000000081565b61017b61037f3660046118aa565b611509565b61014e6103923660046118aa565b611628565b6008546001146103c25760405162461bcd60e51b81526004016103b990611917565b60405180910390fd5b60026008553360005b6001548110156104f3576000600182815481106103ea576103ea61193f565b6000918252602090912001546001600160a01b0316905061040a81611509565b6001600160a01b0382166000908152600460208190526040909120908101919091556001015461043a904261169e565b6001600160a01b038083166000908152600460205260409020600301919091558316156104e057610494838260046000856001600160a01b03166001600160a01b03168152602001908152602001600020600401546116b4565b6001600160a01b03808516600081815260076020908152604080832094871680845294825280832095909555600480825285832001549282526006815284822093825292909252919020555b50806104eb8161196b565b9150506103cb565b50600083116105145760405162461bcd60e51b81526004016103b990611984565b33600090815260056020526040812080548592906105339084906119a8565b92505081905550826003600082825461054c91906119a8565b909155505060405163a9059cbb60e01b81526001600160a01b038381166004830152602482018590527f0000000000000000000000000000000000000000000000000000000000000000169063a9059cbb906044016020604051808303816000875af11580156105c0573d6000803e3d6000fd5b505050506040513d601f19601f820116820180604052508101906105e491906119bb565b6106225760405162461bcd60e51b815260206004820152600f60248201526e1d1c985b9cd9995c8819985a5b1959608a1b60448201526064016103b9565b6040518381526001600160a01b0383169033907f9b1bfa7fa9ee420a16e124f794c35ac9f90472acc99140eb2f6447c714cad8eb906020015b60405180910390a35050600160085550565b7f00000000000000000000000000000000000000000000000000000000000000006001600160a01b031633146106a257600080fd5b6008546001146106c45760405162461bcd60e51b81526004016103b990611917565b60026008558160005b6001548110156107f5576000600182815481106106ec576106ec61193f565b6000918252602090912001546001600160a01b0316905061070c81611509565b6001600160a01b0382166000908152600460208190526040909120908101919091556001015461073c904261169e565b6001600160a01b038083166000908152600460205260409020600301919091558316156107e257610796838260046000856001600160a01b03166001600160a01b03168152602001908152602001600020600401546116b4565b6001600160a01b03808516600081815260076020908152604080832094871680845294825280832095909555600480825285832001549282526006815284822093825292909252919020555b50806107ed8161196b565b9150506106cd565b50600084116108165760405162461bcd60e51b81526004016103b990611984565b6001600160a01b0383166000908152600560205260408120805486929061083e9084906119a8565b92505081905550836003600082825461085791906119a8565b909155505060405163a9059cbb60e01b81526001600160a01b038381166004830152602482018690527f0000000000000000000000000000000000000000000000000000000000000000169063a9059cbb906044016020604051808303816000875af11580156108cb573d6000803e3d6000fd5b505050506040513d601f19601f820116820180604052508101906108ef91906119bb565b61092d5760405162461bcd60e51b815260206004820152600f60248201526e1d1c985b9cd9995c8819985b1a5959608a1b60448201526064016103b9565b816001600160a01b0316836001600160a01b03167f9b1bfa7fa9ee420a16e124f794c35ac9f90472acc99140eb2f6447c714cad8eb8660405161097291815260200190565b60405180910390a3505060016008555050565b60008061099183611509565b905061099e8484836116b4565b9150505b92915050565b6008546001146109ca5760405162461bcd60e51b81526004016103b990611917565b60026008553360005b600154811015610afb576000600182815481106109f2576109f261193f565b6000918252602090912001546001600160a01b03169050610a1281611509565b6001600160a01b03821660009081526004602081905260409091209081019190915560010154610a42904261169e565b6001600160a01b03808316600090815260046020526040902060030191909155831615610ae857610a9c838260046000856001600160a01b03166001600160a01b03168152602001908152602001600020600401546116b4565b6001600160a01b03808516600081815260076020908152604080832094871680845294825280832095909555600480825285832001549282526006815284822093825292909252919020555b5080610af38161196b565b9150506109d3565b5060005b600154811015610c7a57600060018281548110610b1e57610b1e61193f565b60009182526020808320909101543383526007825260408084206001600160a01b03909216808552919092529120549091508015610c65573360008181526007602090815260408083206001600160a01b038716808552925280832092909255905163a9059cbb60e01b81526004810192909252602482018390529063a9059cbb906044016020604051808303816000875af1158015610bc2573d6000803e3d6000fd5b505050506040513d601f19601f82011682018060405250810190610be691906119bb565b610c245760405162461bcd60e51b815260206004820152600f60248201526e1d1c985b9cd9995c8819985a5b1959608a1b60448201526064016103b9565b6040518181526001600160a01b0383169033907f540798df468d7b23d11f156fdb954cb19ad414d150722a7b6d55ba369dea792e9060200160405180910390a35b50508080610c729061196b565b915050610aff565b50506001600855565b610c8b611752565b600854600114610cad5760405162461bcd60e51b81526004016103b990611917565b60026008556000805b600154811015610dde57600060018281548110610cd557610cd561193f565b6000918252602090912001546001600160a01b03169050610cf581611509565b6001600160a01b03821660009081526004602081905260409091209081019190915560010154610d25904261169e565b6001600160a01b03808316600090815260046020526040902060030191909155831615610dcb57610d7f838260046000856001600160a01b03166001600160a01b03168152602001908152602001600020600401546116b4565b6001600160a01b03808516600081815260076020908152604080832094871680845294825280832095909555600480825285832001549282526006815284822093825292909252919020555b5080610dd68161196b565b915050610cb6565b50828410610e225760405162461bcd60e51b81526020600482015260116024820152701cdd185c9d081b5d5cdd081b1d08195b99607a1b60448201526064016103b9565b6001600160a01b0385166000908152600460205260409020600101544211610e765760405162461bcd60e51b81526020600482015260076024820152661b9bdd08195b9960ca1b60448201526064016103b9565b6001600160a01b03851660009081526002602052604090205460ff16610ef7576001805480820182557fb10e2d527612073b26eecdfd717e6a320cf44b4afac2b0732d9fcbe2b7fa0cf60180546001600160a01b0319166001600160a01b0388169081179091556000908152600260205260409020805460ff191690911790555b6001600160a01b03851660009081526004602052604090208481556001810184905542600390910155610f2a84846119a8565b610f3490836119dd565b6001600160a01b0386166000908152600460205260409020600201554284108015610f6157506000600354115b15610fee576000610f7285426119a8565b6003546001600160a01b03881660009081526004602052604090206002015491925090610fa09083906119ff565b610fb290670de0b6b3a76400006119ff565b610fbc91906119dd565b6001600160a01b03871660009081526004602081905260408220018054909190610fe7908490611a16565b9091555050505b6040516323b872dd60e01b8152336004820152306024820152604481018390526001600160a01b038616906323b872dd906064016020604051808303816000875af1158015611041573d6000803e3d6000fd5b505050506040513d601f19601f8201168201806040525081019061106591906119bb565b50604080516001600160a01b038716815260208101869052908101849052606081018390527faecc43db5fdd30351e900b7f70db87835b0fc811d39693c6f1fa82d05d1cf9919060800160405180910390a150506001600855505050565b6110cb611752565b6110d560006117ac565b565b6008546001146110f95760405162461bcd60e51b81526004016103b990611917565b60026008558060005b60015481101561122a576000600182815481106111215761112161193f565b6000918252602090912001546001600160a01b0316905061114181611509565b6001600160a01b03821660009081526004602081905260409091209081019190915560010154611171904261169e565b6001600160a01b03808316600090815260046020526040902060030191909155831615611217576111cb838260046000856001600160a01b03166001600160a01b03168152602001908152602001600020600401546116b4565b6001600160a01b03808516600081815260076020908152604080832094871680845294825280832095909555600480825285832001549282526006815284822093825292909252919020555b50806112228161196b565b915050611102565b506000831161124b5760405162461bcd60e51b81526004016103b990611984565b6040516323b872dd60e01b8152336004820152306024820152604481018490527f00000000000000000000000000000000000000000000000000000000000000006001600160a01b0316906323b872dd906064016020604051808303816000875af11580156112be573d6000803e3d6000fd5b505050506040513d601f19601f820116820180604052508101906112e291906119bb565b6113245760405162461bcd60e51b81526020600482015260136024820152721d1c985b9cd9995c919c9bdb4819985a5b1959606a1b60448201526064016103b9565b6001600160a01b0382166000908152600560205260408120805485929061134c908490611a16565b9250508190555082600360008282546113659190611a16565b90915550506040518381526001600160a01b0383169033907f5dac0c1b1112564a045ba943c9d50270893e8e826c49be8e7073adc713ab7bd79060200161065b565b600181815481106113b757600080fd5b6000918252602090912001546001600160a01b0316905081565b6000805b6001548110156114fd576000600182815481106113f4576113f461193f565b6000918252602090912001546001600160a01b0316905061141481611509565b6001600160a01b03821660009081526004602081905260409091209081019190915560010154611444904261169e565b6001600160a01b038083166000908152600460205260409020600301919091558316156114ea5761149e838260046000856001600160a01b03166001600160a01b03168152602001908152602001600020600401546116b4565b6001600160a01b03808516600081815260076020908152604080832094871680845294825280832095909555600480825285832001549282526006815284822093825292909252919020555b50806114f58161196b565b9150506113d5565b50611506611752565b50565b6001600160a01b038116600090815260046020526040812054421161154857506001600160a01b03166000908152600460208190526040909120015490565b6001600160a01b03821660009081526004602052604081206003810154600190910154611575904261169e565b61157f91906119a8565b905080158061158e5750600354155b156115b45750506001600160a01b03166000908152600460208190526040909120015490565b6003546001600160a01b0384166000908152600460205260409020600201546115de9083906119ff565b6115f090670de0b6b3a76400006119ff565b6115fa91906119dd565b6001600160a01b038416600090815260046020819052604090912001546116219190611a16565b9392505050565b611630611752565b6001600160a01b0381166116955760405162461bcd60e51b815260206004820152602660248201527f4f776e61626c653a206e6577206f776e657220697320746865207a65726f206160448201526564647265737360d01b60648201526084016103b9565b611506816117ac565b60008183106116ad5781611621565b5090919050565b6001600160a01b03808416600090815260066020908152604080832093861683529290529081205481906116e890846119a8565b6001600160a01b038087166000818152600760209081526040808320948a1683529381528382205492825260059052919091205491925090670de0b6b3a7640000906117359084906119ff565b61173f91906119dd565b6117499190611a16565b95945050505050565b6000546001600160a01b031633146110d55760405162461bcd60e51b815260206004820181905260248201527f4f776e61626c653a2063616c6c6572206973206e6f7420746865206f776e657260448201526064016103b9565b600080546001600160a01b038381166001600160a01b0319831681178455604051919092169283917f8be0079c531659141344cd1fd0a4f28419497f9722a3daafe3b4186f6b6457e09190a35050565b80356001600160a01b038116811461181357600080fd5b919050565b6000806040838503121561182b57600080fd5b8235915061183b602084016117fc565b90509250929050565b6000806040838503121561185757600080fd5b611860836117fc565b915061183b602084016117fc565b60008060006060848603121561188357600080fd5b83359250611893602085016117fc565b91506118a1604085016117fc565b90509250925092565b6000602082840312156118bc57600080fd5b611621826117fc565b600080600080608085870312156118db57600080fd5b6118e4856117fc565b966020860135965060408601359560600135945092505050565b60006020828403121561191057600080fd5b5035919050565b6020808252600e908201526d1c99595b9d1c985b9d0818d85b1b60921b604082015260600190565b634e487b7160e01b600052603260045260246000fd5b634e487b7160e01b600052601160045260246000fd5b60006001820161197d5761197d611955565b5060010190565b6020808252600a90820152690616d6f756e74203d20360b41b604082015260600190565b818103818111156109a2576109a2611955565b6000602082840312156119cd57600080fd5b8151801515811461162157600080fd5b6000826119fa57634e487b7160e01b600052601260045260246000fd5b500490565b80820281158282048414176109a2576109a2611955565b808201808211156109a2576109a261195556fea26469706673582212205d8d8e0516782188e4320edd040571635bee024b4325eefe88e0d792dee787fe64736f6c63430008120033",
  "linkReferences": {},
  "deployedLinkReferences": {}
}