{
  "_format": "hh-sol-artifact-1",
  "contractName": "VeToken",
  "sourceName": "contracts/VeToken.sol",
  "abi": [
    {
      "inputs": [
        {
          "internalType": "address",
          "name": "_token",
          "type": "address"
        },
        {
          "internalType": "string",
          "name": "_version",
          "type": "string"
        }
      ],
      "stateMutability": "nonpayable",
      "type": "constructor"
    },
    {
      "anonymous": false,
      "inputs": [
        {
          "indexed": false,
          "internalType": "address",
          "name": "caller",
          "type": "address"
        },
        {
          "indexed": false,
          "internalType": "uint256",
          "name": "epoch",
          "type": "uint256"
        }
      ],
      "name": "GlobalCheckpoint",
      "type": "event"
    },
    {
      "anonymous": false,
      "inputs": [
        {
          "indexed": true,
          "internalType": "address",
          "name": "previousOwner",
          "type": "address"
        },
        {
          "indexed": true,
          "internalType": "address",
          "name": "newOwner",
          "type": "address"
        }
      ],
      "name": "OwnershipTransferred",
      "type": "event"
    },
    {
      "anonymous": false,
      "inputs": [
        {
          "indexed": false,
          "internalType": "uint256",
          "name": "prevSupply",
          "type": "uint256"
        },
        {
          "indexed": false,
          "internalType": "uint256",
          "name": "supply",
          "type": "uint256"
        }
      ],
      "name": "Supply",
      "type": "event"
    },
    {
      "anonymous": false,
      "inputs": [
        {
          "indexed": true,
          "internalType": "enum VeToken.ActionType",
          "name": "actionType",
          "type": "uint8"
        },
        {
          "indexed": true,
          "internalType": "address",
          "name": "provider",
          "type": "address"
        },
        {
          "indexed": false,
          "internalType": "uint256",
          "name": "value",
          "type": "uint256"
        },
        {
          "indexed": true,
          "internalType": "uint256",
          "name": "locktime",
          "type": "uint256"
        }
      ],
      "name": "UserCheckpoint",
      "type": "event"
    },
    {
      "anonymous": false,
      "inputs": [
        {
          "indexed": true,
          "internalType": "address",
          "name": "provider",
          "type": "address"
        },
        {
          "indexed": false,
          "internalType": "uint256",
          "name": "value",
          "type": "uint256"
        },
        {
          "indexed": false,
          "internalType": "uint256",
          "name": "ts",
          "type": "uint256"
        }
      ],
      "name": "Withdraw",
      "type": "event"
    },
    {
      "inputs": [],
      "name": "I_MIN_TIME",
      "outputs": [
        {
          "internalType": "int128",
          "name": "",
          "type": "int128"
        }
      ],
      "stateMutability": "view",
      "type": "function"
    },
    {
      "inputs": [],
      "name": "I_SLOPE_DENOMINATOR",
      "outputs": [
        {
          "internalType": "int128",
          "name": "",
          "type": "int128"
        }
      ],
      "stateMutability": "view",
      "type": "function"
    },
    {
      "inputs": [],
      "name": "MAX_TIME",
      "outputs": [
        {
          "internalType": "uint256",
          "name": "",
          "type": "uint256"
        }
      ],
      "stateMutability": "view",
      "type": "function"
    },
    {
      "inputs": [],
      "name": "MIN_TIME",
      "outputs": [
        {
          "internalType": "uint256",
          "name": "",
          "type": "uint256"
        }
      ],
      "stateMutability": "view",
      "type": "function"
    },
    {
      "inputs": [],
      "name": "MULTIPLIER",
      "outputs": [
        {
          "internalType": "uint256",
          "name": "",
          "type": "uint256"
        }
      ],
      "stateMutability": "view",
      "type": "function"
    },
    {
      "inputs": [],
      "name": "Token",
      "outputs": [
        {
          "internalType": "address",
          "name": "",
          "type": "address"
        }
      ],
      "stateMutability": "view",
      "type": "function"
    },
    {
      "inputs": [],
      "name": "WEEK",
      "outputs": [
        {
          "internalType": "uint256",
          "name": "",
          "type": "uint256"
        }
      ],
      "stateMutability": "view",
      "type": "function"
    },
    {
      "inputs": [
        {
          "internalType": "address",
          "name": "addr",
          "type": "address"
        },
        {
          "internalType": "uint256",
          "name": "ts",
          "type": "uint256"
        }
      ],
      "name": "balanceOf",
      "outputs": [
        {
          "internalType": "uint256",
          "name": "",
          "type": "uint256"
        }
      ],
      "stateMutability": "view",
      "type": "function"
    },
    {
      "inputs": [
        {
          "internalType": "address",
          "name": "addr",
          "type": "address"
        }
      ],
      "name": "balanceOf",
      "outputs": [
        {
          "internalType": "uint256",
          "name": "",
          "type": "uint256"
        }
      ],
      "stateMutability": "view",
      "type": "function"
    },
    {
      "inputs": [
        {
          "internalType": "address",
          "name": "addr",
          "type": "address"
        },
        {
          "internalType": "uint256",
          "name": "blockNumber",
          "type": "uint256"
        }
      ],
      "name": "balanceOfAt",
      "outputs": [
        {
          "internalType": "uint256",
          "name": "",
          "type": "uint256"
        }
      ],
      "stateMutability": "view",
      "type": "function"
    },
    {
      "inputs": [],
      "name": "checkpoint",
      "outputs": [],
      "stateMutability": "nonpayable",
      "type": "function"
    },
    {
      "inputs": [
        {
          "internalType": "uint128",
          "name": "value",
          "type": "uint128"
        },
        {
          "internalType": "uint256",
          "name": "unlockTime",
          "type": "uint256"
        }
      ],
      "name": "createLock",
      "outputs": [],
      "stateMutability": "nonpayable",
      "type": "function"
    },
    {
      "inputs": [],
      "name": "decimals",
      "outputs": [
        {
          "internalType": "uint8",
          "name": "",
          "type": "uint8"
        }
      ],
      "stateMutability": "view",
      "type": "function"
    },
    {
      "inputs": [
        {
          "internalType": "address",
          "name": "addr",
          "type": "address"
        },
        {
          "internalType": "uint128",
          "name": "value",
          "type": "uint128"
        }
      ],
      "name": "depositFor",
      "outputs": [],
      "stateMutability": "nonpayable",
      "type": "function"
    },
    {
      "inputs": [],
      "name": "epoch",
      "outputs": [
        {
          "internalType": "uint256",
          "name": "",
          "type": "uint256"
        }
      ],
      "stateMutability": "view",
      "type": "function"
    },
    {
      "inputs": [
        {
          "internalType": "uint128",
          "name": "value",
          "type": "uint128"
        },
        {
          "internalType": "uint256",
          "name": "expectedUnlockTime",
          "type": "uint256"
        }
      ],
      "name": "estimateDeposit",
      "outputs": [
        {
          "internalType": "int128",
          "name": "initialVeTokenBalance",
          "type": "int128"
        },
        {
          "internalType": "int128",
          "name": "slope",
          "type": "int128"
        },
        {
          "internalType": "int128",
          "name": "bias",
          "type": "int128"
        },
        {
          "internalType": "uint256",
          "name": "actualUnlockTime",
          "type": "uint256"
        },
        {
          "internalType": "uint256",
          "name": "providedUnlockTime",
          "type": "uint256"
        }
      ],
      "stateMutability": "view",
      "type": "function"
    },
    {
      "inputs": [
        {
          "internalType": "address",
          "name": "addr",
          "type": "address"
        }
      ],
      "name": "getLastUserSlope",
      "outputs": [
        {
          "internalType": "int128",
          "name": "",
          "type": "int128"
        }
      ],
      "stateMutability": "view",
      "type": "function"
    },
    {
      "inputs": [
        {
          "internalType": "address",
          "name": "addr",
          "type": "address"
        },
        {
          "internalType": "uint256",
          "name": "idx",
          "type": "uint256"
        }
      ],
      "name": "getUserPointHistoryTS",
      "outputs": [
        {
          "internalType": "uint256",
          "name": "",
          "type": "uint256"
        }
      ],
      "stateMutability": "view",
      "type": "function"
    },
    {
      "inputs": [
        {
          "internalType": "uint128",
          "name": "value",
          "type": "uint128"
        }
      ],
      "name": "increaseAmount",
      "outputs": [],
      "stateMutability": "nonpayable",
      "type": "function"
    },
    {
      "inputs": [
        {
          "internalType": "uint256",
          "name": "unlockTime",
          "type": "uint256"
        }
      ],
      "name": "increaseUnlockTime",
      "outputs": [],
      "stateMutability": "nonpayable",
      "type": "function"
    },
    {
      "inputs": [
        {
          "internalType": "address",
          "name": "",
          "type": "address"
        }
      ],
      "name": "lockedBalances",
      "outputs": [
        {
          "internalType": "uint128",
          "name": "amount",
          "type": "uint128"
        },
        {
          "internalType": "uint256",
          "name": "end",
          "type": "uint256"
        }
      ],
      "stateMutability": "view",
      "type": "function"
    },
    {
      "inputs": [
        {
          "internalType": "address",
          "name": "addr",
          "type": "address"
        }
      ],
      "name": "lockedEnd",
      "outputs": [
        {
          "internalType": "uint256",
          "name": "",
          "type": "uint256"
        }
      ],
      "stateMutability": "view",
      "type": "function"
    },
    {
      "inputs": [],
      "name": "name",
      "outputs": [
        {
          "internalType": "string",
          "name": "",
          "type": "string"
        }
      ],
      "stateMutability": "view",
      "type": "function"
    },
    {
      "inputs": [],
      "name": "owner",
      "outputs": [
        {
          "internalType": "address",
          "name": "",
          "type": "address"
        }
      ],
      "stateMutability": "view",
      "type": "function"
    },
    {
      "inputs": [
        {
          "internalType": "uint256",
          "name": "",
          "type": "uint256"
        }
      ],
      "name": "pointHistory",
      "outputs": [
        {
          "internalType": "int128",
          "name": "bias",
          "type": "int128"
        },
        {
          "internalType": "int128",
          "name": "slope",
          "type": "int128"
        },
        {
          "internalType": "uint256",
          "name": "ts",
          "type": "uint256"
        },
        {
          "internalType": "uint256",
          "name": "blk",
          "type": "uint256"
        }
      ],
      "stateMutability": "view",
      "type": "function"
    },
    {
      "inputs": [],
      "name": "renounceOwnership",
      "outputs": [],
      "stateMutability": "nonpayable",
      "type": "function"
    },
    {
      "inputs": [
        {
          "internalType": "uint256",
          "name": "",
          "type": "uint256"
        }
      ],
      "name": "slopeChanges",
      "outputs": [
        {
          "internalType": "int128",
          "name": "",
          "type": "int128"
        }
      ],
      "stateMutability": "view",
      "type": "function"
    },
    {
      "inputs": [],
      "name": "symbol",
      "outputs": [
        {
          "internalType": "string",
          "name": "",
          "type": "string"
        }
      ],
      "stateMutability": "view",
      "type": "function"
    },
    {
      "inputs": [],
      "name": "totalSupply",
      "outputs": [
        {
          "internalType": "uint256",
          "name": "",
          "type": "uint256"
        }
      ],
      "stateMutability": "view",
      "type": "function"
    },
    {
      "inputs": [
        {
          "internalType": "uint256",
          "name": "ts",
          "type": "uint256"
        }
      ],
      "name": "totalSupply",
      "outputs": [
        {
          "internalType": "uint256",
          "name": "",
          "type": "uint256"
        }
      ],
      "stateMutability": "view",
      "type": "function"
    },
    {
      "inputs": [
        {
          "internalType": "uint256",
          "name": "blockNumber",
          "type": "uint256"
        }
      ],
      "name": "totalSupplyAt",
      "outputs": [
        {
          "internalType": "uint256",
          "name": "",
          "type": "uint256"
        }
      ],
      "stateMutability": "view",
      "type": "function"
    },
    {
      "inputs": [],
      "name": "totalTokenLocked",
      "outputs": [
        {
          "internalType": "uint256",
          "name": "",
          "type": "uint256"
        }
      ],
      "stateMutability": "view",
      "type": "function"
    },
    {
      "inputs": [
        {
          "internalType": "address",
          "name": "newOwner",
          "type": "address"
        }
      ],
      "name": "transferOwnership",
      "outputs": [],
      "stateMutability": "nonpayable",
      "type": "function"
    },
    {
      "inputs": [
        {
          "internalType": "address",
          "name": "",
          "type": "address"
        }
      ],
      "name": "userPointEpoch",
      "outputs": [
        {
          "internalType": "uint256",
          "name": "",
          "type": "uint256"
        }
      ],
      "stateMutability": "view",
      "type": "function"
    },
    {
      "inputs": [
        {
          "internalType": "address",
          "name": "",
          "type": "address"
        },
        {
          "internalType": "uint256",
          "name": "",
          "type": "uint256"
        }
      ],
      "name": "userPointHistory",
      "outputs": [
        {
          "internalType": "int128",
          "name": "bias",
          "type": "int128"
        },
        {
          "internalType": "int128",
          "name": "slope",
          "type": "int128"
        },
        {
          "internalType": "uint256",
          "name": "ts",
          "type": "uint256"
        },
        {
          "internalType": "uint256",
          "name": "blk",
          "type": "uint256"
        }
      ],
      "stateMutability": "view",
      "type": "function"
    },
    {
      "inputs": [],
      "name": "version",
      "outputs": [
        {
          "internalType": "string",
          "name": "",
          "type": "string"
        }
      ],
      "stateMutability": "view",
      "type": "function"
    },
    {
      "inputs": [],
      "name": "withdraw",
      "outputs": [],
      "stateMutability": "nonpayable",
      "type": "function"
    }
  ],
  "bytecode": "0x60a06040523480156200001157600080fd5b5060405162002c8438038062002c84833981016040819052620000349162000177565b6200003f3362000111565b600180556001600160a01b0382166200009e5760405162461bcd60e51b815260206004820152601660248201527f5f746f6b656e206973207a65726f206164647265737300000000000000000000604482015260640160405180910390fd5b6001600160a01b0382166080526002620000b98282620002fc565b505060008052506005602052437f05b8ccbb9d4d8fb16ea74ce3c29a41f1b461fbdaff4714a0d9a8eb05499746be55427f05b8ccbb9d4d8fb16ea74ce3c29a41f1b461fbdaff4714a0d9a8eb05499746bd55620003c8565b600080546001600160a01b038381166001600160a01b0319831681178455604051919092169283917f8be0079c531659141344cd1fd0a4f28419497f9722a3daafe3b4186f6b6457e09190a35050565b634e487b7160e01b600052604160045260246000fd5b600080604083850312156200018b57600080fd5b82516001600160a01b0381168114620001a357600080fd5b602084810151919350906001600160401b0380821115620001c357600080fd5b818601915086601f830112620001d857600080fd5b815181811115620001ed57620001ed62000161565b604051601f8201601f19908116603f0116810190838211818310171562000218576200021862000161565b8160405282815289868487010111156200023157600080fd5b600093505b8284101562000255578484018601518185018701529285019262000236565b60008684830101528096505050505050509250929050565b600181811c908216806200028257607f821691505b602082108103620002a357634e487b7160e01b600052602260045260246000fd5b50919050565b601f821115620002f757600081815260208120601f850160051c81016020861015620002d25750805b601f850160051c820191505b81811015620002f357828155600101620002de565b5050505b505050565b81516001600160401b0381111562000318576200031862000161565b62000330816200032984546200026d565b84620002a9565b602080601f8311600181146200036857600084156200034f5750858301515b600019600386901b1c1916600185901b178555620002f3565b600085815260208120601f198616915b82811015620003995788860151825594840194600190910190840162000378565b5085821015620003b85787850151600019600388901b60f8161c191681555b5050505050600190811b01905550565b608051612892620003f26000396000818161055b01528181610a30015261177e01526128926000f3fe608060405234801561001057600080fd5b50600436106102265760003560e01c806381fc83bb11610130578063bd85b039116100b8578063e54357bc1161007c578063e54357bc146105be578063f2fde38b14610604578063f3a6d60814610617578063f4359ce51461062a578063f52a36f71461063457600080fd5b8063bd85b0391461053a578063c00c4da11461054d578063c241267614610556578063c2c4c5c11461057d578063e2c5b4d21461058557600080fd5b8063900cf0cf116100ff578063900cf0cf146104db578063911dcf5c146104e457806395d89b41146104ee578063981b24d0146105145780639a3f14f71461052757600080fd5b806381fc83bb146104505780638ad4c447146104705780638da5cb5b146104ae5780638ff07b5b146104d357600080fd5b80633c3b3189116101b35780634ee2cd7e116101825780634ee2cd7e1461040757806354fd4d501461041a57806370a0823114610422578063715018a6146104355780637c616fe61461043d57600080fd5b80633c3b3189146103a25780633ccfd60b146103c05780634deafcae146103c85780634e3430ca146103f457600080fd5b806318160ddd116101fa57806318160ddd146102ef57806326949984146102f7578063313ce5671461030257806334d901a41461031c5780633527d1c01461038d57600080fd5b8062fdd58e1461022b5780630483a7f614610251578063059f8b16146102a357806306fdde03146102b2575b600080fd5b61023e61023936600461245b565b610657565b6040519081526020015b60405180910390f35b61028461025f366004612485565b600760205260009081526040902080546001909101546001600160801b039091169082565b604080516001600160801b039093168352602083019190915201610248565b61023e670de0b6b3a764000081565b6102e260405180604001604052806011815260200170566f74652d657363726f7720455854524160781b81525081565b60405161024891906124cb565b61023e61072b565b61023e6301e1338081565b61030a601281565b60405160ff9091168152602001610248565b61036561032a36600461245b565b6008602090815260009283526040808420909152908252902080546001820154600290920154600f82810b93600160801b909304900b919084565b60408051600f95860b81529390940b6020840152928201526060810191909152608001610248565b6103a061039b366004612515565b61073b565b005b6103ad6301e1338081565b604051600f9190910b8152602001610248565b6103a06108d8565b61023e6103d6366004612485565b6001600160a01b031660009081526007602052604090206001015490565b6103a0610402366004612531565b610af9565b61023e61041536600461245b565b610be7565b6102e2610e97565b61023e610430366004612485565b610f25565b6103a0610f31565b6103a061044b36600461254c565b610f43565b61023e61045e366004612485565b60096020526000908152604090205481565b61036561047e36600461254c565b600560205260009081526040902080546001820154600290920154600f82810b93600160801b909304900b919084565b6000546001600160a01b03165b6040516001600160a01b039091168152602001610248565b61023e611070565b61023e60045481565b6103ad62093a8081565b6102e2604051806040016040528060078152602001667665455854524160c81b81525081565b61023e61052236600461254c565b611081565b6103a0610535366004612565565b611210565b61023e61054836600461254c565b611326565b61023e60035481565b6104bb7f000000000000000000000000000000000000000000000000000000000000000081565b6103a0611392565b61023e61059336600461245b565b6001600160a01b03919091166000908152600860209081526040808320938352929052206001015490565b6105d16105cc366004612515565b6113db565b60408051600f96870b815294860b60208601529290940b918301919091526060820152608081019190915260a001610248565b6103a0610612366004612485565b6114b8565b6103ad610625366004612485565b61152e565b61023e62093a8081565b6103ad61064236600461254c565b600660205260009081526040902054600f0b81565b600080610664848461158d565b905080600003610678576000915050610725565b6001600160a01b038416600090815260086020908152604080832084845282529182902082516080810184528154600f81810b8352600160801b909104900b928101929092526001810154928201839052600201546060820152906106dd90856125ae565b81602001516106ec91906125ce565b815182906106fb9083906125ee565b600f90810b90915282516000910b1215905061071657600081525b51600f0b91506107259050565b505b92915050565b600061073642611326565b905090565b610743611641565b33600062093a806107548185612631565b61075e9190612645565b6001600160a01b038316600090815260076020908152604091829020825180840190935280546001600160801b039081168452600190910154918301919091529192509085166107ec5760405162461bcd60e51b815260206004820152601460248201527343616e6e6f74206c6f636b203020746f6b656e7360601b60448201526064015b60405180910390fd5b80516001600160801b0316156108445760405162461bcd60e51b815260206004820152601960248201527f5769746864726177206f6c6420746f6b656e732066697273740000000000000060448201526064016107e3565b42821161088d5760405162461bcd60e51b815260206004820152601760248201527610d85b9b9bdd081b1bd8dac81a5b881d1a19481c185cdd604a1b60448201526064016107e3565b61089b6301e133804261265c565b8211156108ba5760405162461bcd60e51b81526004016107e39061266f565b6108c883868484600161169a565b5050506108d460018055565b5050565b6108e0611641565b33600081815260076020908152604091829020825180840190935280546001600160801b0316808452600190910154918301919091526109325760405162461bcd60e51b81526004016107e3906126b7565b806020015142101561097a5760405162461bcd60e51b81526020600482015260116024820152702637b1b5903737ba1032bc3834b932b21760791b60448201526064016107e3565b80516001600160a01b03831660008181526007602081815260408084208151808301835281546001600160801b03808216835260018401805484880152855180870190965288865285870189815299895296909552925184166001600160801b031990931692909217905593519091556003805492918516916109fd83856126e7565b90915550506040805180820190915260008082526020820152610a23908690849061185a565b610a606001600160a01b037f000000000000000000000000000000000000000000000000000000000000000016866001600160801b038616611be3565b604080516001600160801b03851681524260208201526001600160a01b038716917ff279e6a1f5e320cca91135676d9cb6e44ca8a08c0b88342bcdb1144f6511b568910160405180910390a26003546040805183815260208101929092527f5e2aa66efd74cce82b21852e317e5490d9ecc9e6bb953ae24d90851258cc2f5c910160405180910390a15050505050610af760018055565b565b610b01611641565b33600081815260076020908152604091829020825180840190935280546001600160801b039081168452600190910154918301919091528316610b805760405162461bcd60e51b815260206004820152601760248201527643616e6e6f74206465706f736974203020746f6b656e7360481b60448201526064016107e3565b80516001600160801b0316610ba75760405162461bcd60e51b81526004016107e3906126b7565b42816020015111610bca5760405162461bcd60e51b81526004016107e3906126fa565b610bd98284600084600261169a565b5050610be460018055565b50565b6001600160a01b0382166000908152600960205260408120548190815b6080811015610c915781831015610c915760006002610c23848661265c565b610c2e90600161265c565b610c389190612631565b6001600160a01b03881660009081526008602090815260408083208484529091529020600201549091508610610c7057809350610c7e565b610c7b6001826126e7565b92505b5080610c898161272a565b915050610c04565b506001600160a01b0385166000908152600860209081526040808320858452825280832081516080810183528154600f81810b8352600160801b909104900b938101939093526001810154918301919091526002015460608201526004549091610cfb8783611c4b565b600081815260056020908152604080832081516080810183528154600f81810b8352600160801b909104900b938101939093526001810154918301919091526002015460608201529192508084841015610dda576000600581610d5f87600161265c565b8152602080820192909252604090810160002081516080810183528154600f81810b8352600160801b909104900b93810193909352600181015491830191909152600201546060808301829052860151919250610dbc91906126e7565b925083604001518160400151610dd291906126e7565b915050610dfe565b6060830151610de9908b6126e7565b9150826040015142610dfb91906126e7565b90505b60408301518215610e3b578284606001518c610e1a91906126e7565b610e249084612645565b610e2e9190612631565b610e38908261265c565b90505b6040870151610e4a90826125ae565b8760200151610e5991906125ce565b87518890610e689083906125ee565b600f90810b90915288516000910b12159050610e8357600087525b50509351600f0b9998505050505050505050565b60028054610ea490612743565b80601f0160208091040260200160405190810160405280929190818152602001828054610ed090612743565b8015610f1d5780601f10610ef257610100808354040283529160200191610f1d565b820191906000526020600020905b815481529060010190602001808311610f0057829003601f168201915b505050505081565b60006107258242610657565b610f39611cc9565b610af76000611d23565b336000818152600760209081526040808320815180830190925280546001600160801b0316825260010154918101919091529062093a80610f848186612631565b610f8e9190612645565b82519091506001600160801b0316610fb85760405162461bcd60e51b81526004016107e3906126b7565b42826020015111610fdb5760405162461bcd60e51b81526004016107e3906126fa565b8160200151811161102e5760405162461bcd60e51b815260206004820152601f60248201527f43616e206f6e6c7920696e637265617365206c6f636b206475726174696f6e0060448201526064016107e3565b61103c6301e133804261265c565b81111561105b5760405162461bcd60e51b81526004016107e39061266f565b61106a8360008385600361169a565b50505050565b61107e62093a806001612645565b81565b60004382111561109057600080fd5b600454600061109f8483611c4b565b600081815260056020908152604080832081516080810183528154600f81810b8352600160801b909104900b938101939093526001810154918301919091526002015460608201529192508383101561119e57600060058161110286600161265c565b8152602080820192909252604090810160002081516080810183528154600f81810b8352600160801b909104900b9381019390935260018101549183019190915260020154606080830182905285015191925061115f91906126e7565b8360400151826040015161117391906126e7565b6060850151611182908a6126e7565b61118c9190612645565b6111969190612631565b9150506111ed565b438260600151146111ed5760608201516111b890436126e7565b60408301516111c790426126e7565b60608401516111d690896126e7565b6111e09190612645565b6111ea9190612631565b90505b61120682828460400151611201919061265c565b611d73565b9695505050505050565b611218611641565b6001600160a01b038216600090815260076020908152604091829020825180840190935280546001600160801b0390811684526001909101549183019190915282166112a05760405162461bcd60e51b815260206004820152601760248201527643616e6e6f74206465706f736974203020746f6b656e7360481b60448201526064016107e3565b80516001600160801b03166112ea5760405162461bcd60e51b815260206004820152601060248201526f4e6f206578697374696e67206c6f636b60801b60448201526064016107e3565b4281602001511161130d5760405162461bcd60e51b81526004016107e3906126fa565b61131c8383600084600061169a565b506108d460018055565b60008061133283611e70565b60008181526005602090815260409182902082516080810184528154600f81810b8352600160801b909104900b92810192909252600181015492820192909252600290910154606082015290915061138a8185611d73565b949350505050565b61139a611efb565b5060045460408051338152602081019290925280517fb2f2e419d90cdd327434f0dcf95856b4393cdeca3bb6506d39d9619e2572a55d9281900390910190a1565b60008080808062093a806113ef8188612631565b6113f99190612645565b91504282116114445760405162461bcd60e51b815260206004820152601760248201527610d85b9b9bdd081b1bd8dac81a5b881d1a19481c185cdd604a1b60448201526064016107e3565b6114526301e133804261265c565b8211156114715760405162461bcd60e51b81526004016107e39061266f565b866114806301e133808261277d565b945061148c42846125ae565b61149690866125ce565b9350600084600f0b136114a857600093505b5091969295508694909350919050565b6114c0611cc9565b6001600160a01b0381166115255760405162461bcd60e51b815260206004820152602660248201527f4f776e61626c653a206e6577206f776e657220697320746865207a65726f206160448201526564647265737360d01b60648201526084016107e3565b610be481611d23565b6001600160a01b0381166000908152600960205260408120548082036115575750600092915050565b6001600160a01b0390921660009081526008602090815260408083209483529390529190912054600160801b9004600f0b919050565b6001600160a01b0382166000908152600960205260408120548190815b6080811015611637578183101561163757600060026115c9848661265c565b6115d490600161265c565b6115de9190612631565b6001600160a01b0388166000908152600860209081526040808320848452909152902060010154909150861061161657809350611624565b6116216001826126e7565b92505b508061162f8161272a565b9150506115aa565b5090949350505050565b6002600154036116935760405162461bcd60e51b815260206004820152601f60248201527f5265656e7472616e637947756172643a207265656e7472616e742063616c6c0060448201526064016107e3565b6002600155565b6001600160a01b0385166000908152600760209081526040808320815180830190925280546001600160801b0390811683526001909101549282019290925260038054919391928816916116ee838561265c565b90915550508151869083906117049083906127bb565b6001600160801b0316905250841561171e57602082018590525b6001600160a01b0387166000908152600760209081526040909120835181546001600160801b0319166001600160801b039091161781559083015160019091015561176a87858461185a565b6001600160801b038616156117b7576117b77f00000000000000000000000000000000000000000000000000000000000000006001600160a01b031633306001600160801b038a16612212565b8160200151876001600160a01b03168460038111156117d8576117d86127db565b6040516001600160801b038a1681527f145d66d91f92d1a062bf7236ac6068ac75f08301bdbe776e3a8775136e486aa89060200160405180910390a46003546040805183815260208101929092527f5e2aa66efd74cce82b21852e317e5490d9ecc9e6bb953ae24d90851258cc2f5c910160405180910390a150505050505050565b60408051608080820183526000808352602080840182905283850182905260608085018390528551938401865282845290830182905293820181905292810183905284519192909181906001600160801b0316156118ff57855160208701514210156118fd576118ce6301e133808261277d565b600f0b6020808701919091528701516118e89042906125ae565b85602001516118f791906125ce565b600f0b85525b505b42856020015111801561191b575084516001600160801b031615155b1561196d578451602086015142101561196b5761193c6301e133808261277d565b600f0b6020808601919091528601516119569042906125ae565b846020015161196591906125ce565b600f0b84525b505b602080870151600090815260068252604090205490860151600f9190910b9250156119ac5750602080850151600090815260069091526040902054600f0b5b60006119b6611efb565b9050846020015184602001516119cc91906125ee565b816020018181516119dd91906127f1565b600f0b905250845184516119f191906125ee565b81518290611a009083906127f1565b600f90810b90915260208301516000910b12159050611a2157600060208201525b60008160000151600f0b1215611a3657600081525b6004546000908152600560209081526040918290208351828501516001600160801b03908116600160801b0291161781559183015160018301556060830151600290920191909155870151421015611ae8576020850151611a9790846127f1565b92508660200151866020015103611aba576020840151611ab790846125ee565b92505b602087810151600090815260069091526040902080546001600160801b0319166001600160801b0385161790555b4286602001511115611b4357866020015186602001511115611b43576020840151611b1390836125ee565b602087810151600090815260069091526040902080546001600160801b0319166001600160801b03831617905591505b6001600160a01b038816600090815260096020526040812054611b6790600161265c565b6001600160a01b0390991660008181526009602090815260408083208d9055428982019081524360608b01908152948452600883528184209d84529c8252909120875197909101516001600160801b03908116600160801b02971696909617865598516001860155505095516002909201919091555050505050565b6040516001600160a01b038316602482015260448101829052611c4690849063a9059cbb60e01b906064015b60408051601f198184030181529190526020810180516001600160e01b03166001600160e01b03199093169290921790915261224a565b505050565b60008082815b608081101561163757818310156116375760006002611c70848661265c565b611c7b90600161265c565b611c859190612631565b6000818152600560205260409020600201549091508710611ca857809350611cb6565b611cb36001826126e7565b92505b5080611cc18161272a565b915050611c51565b6000546001600160a01b03163314610af75760405162461bcd60e51b815260206004820181905260248201527f4f776e61626c653a2063616c6c6572206973206e6f7420746865206f776e657260448201526064016107e3565b600080546001600160a01b038381166001600160a01b0319831681178455604051919092169283917f8be0079c531659141344cd1fd0a4f28419497f9722a3daafe3b4186f6b6457e09190a35050565b600080839050600062093a80808360400151611d8f9190612631565b611d999190612645565b905060005b60ff811015611e4e57611db462093a808361265c565b9150600085831115611dc857859250611ddc565b50600082815260066020526040902054600f0b5b6040840151611deb90846125ae565b8460200151611dfa91906125ce565b84518590611e099083906125ee565b600f0b905250858303611e1c5750611e4e565b8084602001818151611e2e91906127f1565b600f0b905250506040830182905280611e468161272a565b915050611d9e565b5060008260000151600f0b1215611e6457600082525b5051600f0b9392505050565b6004546000908190815b6080811015611ef25781831015611ef25760006002611e99848661265c565b611ea490600161265c565b611eae9190612631565b6000818152600560205260409020600101549091508610611ed157809350611edf565b611edc6001826126e7565b92505b5080611eea8161272a565b915050611e7a565b50909392505050565b6040805160808082018352600080835260208084018290528385018290526060938401829052600454855180850187528381528083018490524281880181905243828801819052885196870189528587529386019490945295840192909252928201929092528115611fdc575060008181526005602081815260408084208151608080820184528254600f81810b808552600160801b909204900b83870181905260018501548487018190526002909501546060808601829052998b9052978752855192830186529082529481019490945291830152928101919091529092505b6040830151600042821015612028576040850151611ffa90426126e7565b606086015161200990436126e7565b61201b90670de0b6b3a7640000612645565b6120259190612631565b90505b600062093a806120388185612631565b6120429190612645565b905060005b60ff8110156122025761205d62093a808361265c565b915060004283111561207157429250612085565b50600082815260066020526040902054600f0b5b61208f85846125ae565b886020015161209e91906125ce565b885189906120ad9083906125ee565b600f0b9052506020880180518291906120c79083906127f1565b600f90810b90915289516000910b121590506120e257600088525b60008860200151600f0b12156120fa57600060208901525b60408089018490528601519294508492670de0b6b3a76400009061211e90856126e7565b6121289086612645565b6121329190612631565b8660600151612141919061265c565b606089015261215160018861265c565b96504283036121aa575043606088019081526000878152600560209081526040918290208a51918b01516001600160801b03908116600160801b0292169190911781559089015160018201559051600290910155612202565b506000868152600560209081526040918290208951918a01516001600160801b03908116600160801b0292169190911781559088015160018201556060880151600290910155806121fa8161272a565b915050612047565b5050836004819055505050505090565b6040516001600160a01b038085166024830152831660448201526064810182905261106a9085906323b872dd60e01b90608401611c0f565b600061229f826040518060400160405280602081526020017f5361666545524332303a206c6f772d6c6576656c2063616c6c206661696c6564815250856001600160a01b031661231c9092919063ffffffff16565b805190915015611c4657808060200190518101906122bd919061281e565b611c465760405162461bcd60e51b815260206004820152602a60248201527f5361666545524332303a204552433230206f7065726174696f6e20646964206e6044820152691bdd081cdd58d8d9595960b21b60648201526084016107e3565b606061138a848460008585600080866001600160a01b031685876040516123439190612840565b60006040518083038185875af1925050503d8060008114612380576040519150601f19603f3d011682016040523d82523d6000602084013e612385565b606091505b5091509150612396878383876123a1565b979650505050505050565b60608315612410578251600003612409576001600160a01b0385163b6124095760405162461bcd60e51b815260206004820152601d60248201527f416464726573733a2063616c6c20746f206e6f6e2d636f6e747261637400000060448201526064016107e3565b508161138a565b61138a83838151156124255781518083602001fd5b8060405162461bcd60e51b81526004016107e391906124cb565b80356001600160a01b038116811461245657600080fd5b919050565b6000806040838503121561246e57600080fd5b6124778361243f565b946020939093013593505050565b60006020828403121561249757600080fd5b6124a08261243f565b9392505050565b60005b838110156124c25781810151838201526020016124aa565b50506000910152565b60208152600082518060208401526124ea8160408501602087016124a7565b601f01601f19169190910160400192915050565b80356001600160801b038116811461245657600080fd5b6000806040838503121561252857600080fd5b612477836124fe565b60006020828403121561254357600080fd5b6124a0826124fe565b60006020828403121561255e57600080fd5b5035919050565b6000806040838503121561257857600080fd5b6125818361243f565b915061258f602084016124fe565b90509250929050565b634e487b7160e01b600052601160045260246000fd5b818103600083128015838313168383128216171561072357610723612598565b600082600f0b82600f0b0280600f0b915080821461072357610723612598565b600f82810b9082900b0360016001607f1b0319811260016001607f1b038213171561072557610725612598565b634e487b7160e01b600052601260045260246000fd5b6000826126405761264061261b565b500490565b808202811582820484141761072557610725612598565b8082018082111561072557610725612598565b60208082526028908201527f566f74696e67206c6f636b2063616e206e6f74206c6f6e676572207468616e206040820152674d41585f54494d4560c01b606082015260800190565b602080825260169082015275139bc8195e1a5cdd1a5b99c81b1bd8dac8199bdd5b9960521b604082015260600190565b8181038181111561072557610725612598565b6020808252601690820152754c6f636b20657870697265642e20576974686472617760501b604082015260600190565b60006001820161273c5761273c612598565b5060010190565b600181811c9082168061275757607f821691505b60208210810361277757634e487b7160e01b600052602260045260246000fd5b50919050565b600081600f0b83600f0b806127945761279461261b565b60016001607f1b03198214600019821416156127b2576127b2612598565b90059392505050565b6001600160801b0381811683821601908082111561072357610723612598565b634e487b7160e01b600052602160045260246000fd5b600f81810b9083900b0160016001607f1b03811360016001607f1b03198212171561072557610725612598565b60006020828403121561283057600080fd5b815180151581146124a057600080fd5b600082516128528184602087016124a7565b919091019291505056fea264697066735822122034a13a8ed8fd075c8c4b9c4ff3c4fabeb38ce67d2e740be821cdb1a07da7c52764736f6c63430008120033",
  "linkReferences": {},
  "deployedLinkReferences": {}
}